:100000000C94D2010C9419020C9419020C94ED0C6E
:100010000C9419020C9419020C9419020C941902F4
:100020000C9419020C9419020C94E11D0C94B51E49
:100030000C94A1180C9419020C9419020C94190236
:100040000C9419020C9419020C9419020C941902C4
:100050000C9419020C94F8180C9419020C941902BF
:100060000C9419020C9419020C9419020C941902A4
:100070000C9419020C9419020C9419020C94190294
:100080000C9419020C9419020C9419020C94190284
:100090000C9419020C9419020C9419020C94190274
:1000A0000C9419020C9419020C94190229001400E2
:1000B0001A000800150017002B00040016000700A6
:1000C00009000A00E1001D001B00060019000500E0
:1000D000000000004C6491682C422A612D0013003E
:1000E00012000C0018001C00340033000F000E003A
:1000F0000D000B00E500380037003600100011003D
:10010000000000004C64906828412A610100310021
:1001100023021E022402310226022002210234029E
:100120003400350201000100010001002F022F0000
:100130000000000001000100010001002D0022026A
:1001400025022E022E001F02270235004F0052000A
:100150005100500001000100010001003002300098
:1001600000000000005C0100010001003A003B00BB
:100170003C003D003E003F0001001E001F0020002B
:10018000210022004000410042004300440045009D
:1001900000000000005C0100010001002D002202AF
:1001A00025022E022E000100010027002600250056
:1001B0002400230001003800370036000100010050
:1001C0000000000001000100010001000100010029
:1001D0000100010001000100010001000100010017
:1001E0000100010001000100010001000100010007
:1001F00000000000010001000100010001000100F9
:1002000001000100010001000100010001000100E6
:1002100001000100010001000100010001000100D6
:1002200000000000010001000100010000000000CA
:10023000000000002A2B2800000000000000000041
:100240000000000000000029000000002C1E3420E7
:10025000212224342627252E362D3738271E1F200D
:100260002122232425263333362E37381F04050652
:100270000708090A0B0C0D0E0F1011121314151696
:100280001718191A1B1C1D2F3130232D3504050694
:100290000708090A0B0C0D0E0F1011121314151676
:1002A0001718191A1B1C1D2F3130354C0000000087
:1002B000000000000000000000000000000000003E
:1002C0007E0F00D4FFFFFFC7000000780E0363001D
:1002D0006C00610077003400340000000C037900EA
:1002E000660075006B007500000004030904090234
:1002F0004200020100A0FA0904000001030101000C
:100300000921110100012240000705810308000AAC
:10031000090401000203000000092111010001226B
:1003200022000705820320000107050303200001C6
:1003300012011001000000084659010001000102ED
:1003400000010660FF0961A1010962150026FF0096
:100350009520750881020963150026FF0095207518
:10036000089102C005010906A101050719E029E766
:100370001500250195087501810295017508810117
:100380000507190029FF150026FF0095067508814D
:10039000000508190129059505750191029501755A
:1003A000039101C011241FBECFEFDAE0DEBFCDBF45
:1003B00004B603FE27C08091E0019091E101A09175
:1003C000E201B091E3018730904BA740B04BD1F4EC
:1003D0001092E0011092E1011092E2011092E3010B
:1003E00014BE84B7877F84BF0FB6F894A895809118
:1003F0006000886180936000109260000FBEE0E0B2
:10040000F8E3099511E0A0E0B1E0EEEDF1E402C0FF
:1004100005900D92A432B107D9F721E0A4E2B1E032
:1004200001C01D92A03EB207E1F70E949D1A0C94F4
:10043000B6200C94000081E0089581E008950C94AA
:100440001D0208950C9421021F93CF93DF9300D0D7
:1004500000D00F92CDB7DEB749835A836B833091BA
:10046000430189819A8131111DC06623B9F022238D
:10047000A9F00E941216182F682F89819A810E9474
:10048000BB1569817A81812F0F900F900F900F908B
:100490000F90DF91CF911F910C9467090E94E9158D
:1004A000182FEFCF0E94121669817A81EDCFFC01DF
:1004B000262F408151816281738184810C942402B2
:1004C000CF93DF93EC0160E00E945702BE01DF9101
:1004D000CF910C942202FF920F931F93CF93DF933F
:1004E000E82FF0E0E45DFD4FF490C82FC695C69567
:1004F000C695D0E0FE01E454FD4F0491877010E0F2
:10050000082E02C0159507950A94E2F7017011278D
:10051000C455DD4FFE01C491D0E002C0D595C7950A
:100520008A95E2F7C170DD270115110519F081EEFA
:100530000E94BE0E209719F086EE0E94BE0E8F2DEF
:100540000E94110FCD2B19F086EE0E94E90E012BAF
:1005500041F081EEDF91CF911F910F91FF900C94AC
:10056000E90EDF91CF911F910F91FF900895EF92C7
:10057000FF920F931F93CF93DF93EC01162F0AE0A6
:100580008881882309F454C0813009F04EC08981E4
:10059000813099F47E0122E0E20EF11C8A810E94F2
:1005A000110FE7012196812F815050F3EFE9FFE011
:1005B0003197F1F700C00000F7CF823041F47E019F
:1005C00082E0E80EF11C8A810E94BE0EEACF8330E1
:1005D00041F47E01E2E0EE0EF11C8A810E94E90EF8
:1005E000E0CF843011F02196DDCF2A81229690E071
:1005F00080E0AE014F5F5F4F2053330B2A3031054F
:1006000048F0019778F2EFE9FFE03197F1F700C089
:100610000000F7CF089FB001099F700D1124C90198
:10062000860F971F2981EA01E4CF0E946B02BACF9F
:10063000DF91CF911F910F91FF90EF90089560E0AF
:100640000C94B7028F929F92AF92BF92CF92DF929B
:10065000EF92FF920F931F936B017C0181E090E07A
:10066000A0E0B0E04C015D0104C0880C991CAA1CFC
:10067000BB1C4A95D2F7B501A4014C015D0104C031
:10068000880C991CAA1CBB1C2A95D2F74829592909
:100690006A297B2904C0880F991FAA1FBB1F0A95CE
:1006A000D2F78A019B010C211D212E213F21041725
:1006B00015072607370789F48C299D29AE29BF29FC
:1006C000BC01CD011F910F91FF90EF90DF90CF9073
:1006D000BF90AF909F908F90089580959095A09532
:1006E000B0958C219D21AE21BF21EACF0F93382FE9
:1006F000262F60919A0170919B0180919C019091AD
:100700009D01042F432F0E9422030F910C94F91492
:100710000E942F190E944F17811102C00E94F317E7
:100720000C94A3050C94A60508950E9460110E94E4
:1007300094032FEF84E39CE0215080409040E1F748
:1007400000C000000C941C190F931F93CF93DF93EC
:10075000EC0161E00E9457028C01BE010E949E07DD
:10076000882359F1BE01C8010E941F02882329F184
:10077000BE01C8010E949E0A8823F9F0BE01C8018B
:100780000E94F00A8823C9F0BE01C8010E94130C20
:10079000882399F08A81882339F001158CE51807A0
:1007A00051F00F3D1C4579F0CE01DF91CF911F91A3
:1007B0000F910C941B020E94950380E0DF91CF9172
:1007C0001F910F9108950E94F317F7CF08950C948D
:1007D000E60381E008950C94E903CF93C82F0E94AB
:1007E000E7038C2FCF910C94EB03CF93DF930E9400
:1007F00067090E94C804EC01811523E5920790F572
:10080000811532E5930708F096C081159042C8F42F
:10081000C11581E0D80788F4C53AD10548F4C43041
:10082000D10558F4C130D10541F0D0E0C0E005C099
:10083000CE01805E91090897C0F7CE01DF91CF917C
:100840000895C11591E5D90708F070C0C11520E5DC
:10085000D20708F04EC0C11530E4D30730F3DF7083
:10086000D06AEBCF811546E59407F0F4C11585E514
:10087000D80708F075C0C11594E5D90708F06BC01A
:10088000CE018370992721E030E002C0220F331F90
:100890008A95E2F7C695C69590E2C99FE0011124BA
:1008A000C22BD32BDA68C9CF81152AE5920778F4D9
:1008B000811539E5930708F05EC0811548E5940776
:1008C00008F4B3CFD82FCC27C06FD06AB6CF9056DC
:1008D0008115904208F0A9CF8D2F8F710E945F057E
:1008E00090E0982F882788279F719C012C2BE90185
:1008F00040C0CE01E4E096958795EA95E1F78370D4
:100900002C2F26952695237040E2249F90011124D8
:10091000382B8C2F8370C1E0D0E002C0CC0FDD1FDC
:100920008A95E2F7C22BD32BDC6887CFDC2FCC274C
:10093000C16FD06A82CF8370992721E030E002C076
:10094000220F331F8A95E2F7C695C69580E2C89FAD
:10095000E0011124E7CFDC2FCC27C46FD06A6DCF24
:100960008C2F0E945F05C82FD0E0DC2FCC27CC272E
:10097000DF71D06262CF8F700E945F0534E0D69540
:10098000C7953A95E1F7CF709C2FEC01D06955CF10
:1009900082389105B1F1B0F48133910509F475C045
:1009A00048F48932910509F469C08A32910509F445
:1009B00073C008958533910509F459C089339105B1
:1009C00001F10895833E9105A9F138F4803E910527
:1009D000F9F0823E910549F10895863E9105A9F10D
:1009E000873E9105C9F1843E910519F52091D20108
:1009F00021FF1FC08091D10184FD14C087EE90E0DB
:100A000008952091D1012370A1F080EE90E0089527
:100A10002091D10120FD47C03091D20130FF09C0A3
:100A200024FF44C090E080E004C02091D10122FD69
:100A3000F7CF08952091D10122FD3BC03091D20122
:100A400030FDE3CF24FFF5CFEDCF2091D10123FF7F
:100A5000F0CF24FDE7CFD2CF2091D10123FD2CC0D0
:100A60003091D20131FFEECF84EE90E008952091D5
:100A7000D10125FFDECF89E290E008952091D101D8
:100A800025FFD7CF85E390E008952091D10126FF7F
:100A9000D0CF8AE290E008952091D10126FFC9CFFE
:100AA00081E390E0089589E390E0089583EE90E07B
:100AB000089582EE90E0089586EE90E0089590917A
:100AC000D10192FF06C0282F28712830F9F4877FC2
:100AD000846093FF06C0282F28712831F1F4877EA7
:100AE00084612091D20120FF06C0382F3871383040
:100AF000D9F4877F816021FF06C0282F2871283113
:100B0000D1F4877E816194FD877E0895282F24711A
:100B10002430F9F68B7F8860DCCF282F24712431B4
:100B200001F78B7E8861DDCF382F3171313019F7B5
:100B30008E7F8860E0CF282F2171213121F78E7EB2
:100B40008861E1CF08950C94A20508950C94A50541
:100B5000E82FF0E0ED53FE4F80810895089580EA7C
:100B60008A95F1F70895F894E82FE295EF70F0E098
:100B700031A1282F2F7081E090E001C0880F2A95C5
:100B8000EAF7982F9095932391A392A1892B82A3A2
:100B90007894089508950E94020780910001809141
:100BA000000194E0811190E09093CC0184E0891BD6
:100BB0008093CB0184E90E94B30586E60E94B305C9
:100BC00087E90E94B30586EC0E94B30584EF0E947A
:100BD000B30585EF0E94B30586EF0E94B30587EF4A
:100BE0000E94B30581E30E94B30583E30E94B3052D
:100BF000EBEBF1E0A3ECB1E083EC91E011921D92FC
:100C00008E179F07D9F784E00E94AD060E948803E3
:100C10000C940C070E94E4068823F1F08091CB012C
:100C200090E08D539E4F0E941F07811112C080914A
:100C300024018F5F80932401863048F0E091CB013E
:100C4000F0E0ED53FE4F10821182128213820C9459
:100C5000920310922401FBCF8091CC0190E08D5340
:100C60009E4F0E9438070C94CA05CF92DF92EF92F4
:100C7000FF920F931F93CF93DF93CCE1D1E00BEB67
:100C800011E0D12CEE24E394F12C8991F894E82F13
:100C9000E295EF70F0E021A18F70A70102C0440F30
:100CA000551F8A95E2F7CA01922F982B91A392A122
:100CB0008095892382A378940E94AF05E6E1F1E054
:100CC00030E020E0C12C4191A42FA295AF70B0E09C
:100CD00090968C9190E04F7002C0959587954A95BB
:100CE000E2F780FD36C08E2D022E01C0880F0A94D7
:100CF000EAF7C82A2F5F3F4F2630310521F7FE0162
:100D0000319780810E94B305F8018081C81619F1DE
:100D1000C08281E0D82A0F5F1F4FF1E0C032DF07A9
:100D200009F0B3CF6091CC0170E06D537E4F2D2D53
:100D300044E08BEB91E00E94AE060E940A068D2DE6
:100D4000DF91CF911F910F91FF90EF90DF90CF90A7
:100D5000089580E0CECF80E0DDCF0895FF920F931D
:100D60001F93CF93DF93F82E092F162FD72FC42F61
:100D7000222349F081E0809327010E94D1189093AB
:100D8000260180932501809127018823A1F080917D
:100D90002501909126010E94E918069760F0EF2D39
:100DA000F02FA12FBD2FCE0FDF2FD11DEC17FD0788
:100DB00041F410922701DF91CF911F910F91FF9085
:100DC000089581918D93F2CF80912801811111C0F6
:100DD0008091D80080618093D8008AE18A95F1F7EC
:100DE00000C09091D900892F817090FF82E080939C
:100DF000280181E090912801913009F080E0089568
:100E00000C94E4060E940007809300010E94E4060F
:100E100081110C94130708950E94E406811102C009
:100E20000C941907089561E070E081E091E00C9462
:100E30009E0C61E070E081E091E00C94A50CCF93F2
:100E4000DF93D82FC92F0E943F0D009779F4ED2F23
:100E5000FC2FDC01A65DBE4F2C91219301968430BE
:100E60009105B9F781E0DF91CF91089580E0FBCF44
:100E700030E020E0FC014191CF01F901E65DFE4F39
:100E800040832F5F3F4F24303105A1F7089582E260
:100E900090E00E947420813289F483E290E00E9405
:100EA0007420823059F484E290E00E94742091E032
:100EB000813109F090E0892F8170089580E0FCCFA6
:100EC000CF93C82F6FEF811161E282E290E00E9420
:100ED00082206FEFC11162E083E290E00E948220E5
:100EE0006FEFC11161E184E290E0CF910C94822018
:100EF00080E00E9460070C944917089585E290E015
:100F00000E947420682F70E090E080E0089585E2F0
:100F100090E00C9482200E947D070E944707811177
:100F20000CC060E070E0CB010E9487070E94DF08E0
:100F30000E94CB0981E00C9460070895CF93FB01D8
:100F4000C281CC2309F19C0122513F45203131055A
:100F500020F582510E94DB09C0E08C2FCF910895CB
:100F600081E00E941F1543E062E081E00E94760369
:100F7000F3CF81E00E94401543E062E081E00E94EF
:100F80007603EBCF82E0F6CF8031FFE59F0789F350
:100F900081319F45B9F3C1E0E0CF8031EFE59E0795
:100FA000F9F281319F45C9F682E0DBCF2FEFFC01DA
:100FB00020830895EF92FF920F931F93CF93DF93B7
:100FC000EC01062FE881E150E33108F05EC0F0E06B
:100FD000E854FF4D0C946720198289E08A83602FC2
:100FE000CE01DF91CF911F910F91FF90EF900C9464
:100FF00098198981823069F0833071F08130D9F499
:101000000E94DD180E946D206A837B838C839D8300
:10101000E6CF0E947E07F6CF7E0122E0E20EF11CB1
:1010200010E0812F0E94A805F70181937F011F5FC7
:101030001830B9F7D4CF602FCE010E94D607CFCF9A
:1010400089818230C1F76A817B818C819D810E9478
:101050006D200E948707C3CF4B816A8189810E94DE
:10106000B1089827892798279D838C83B8CF2C8136
:101070003D813227232732274B816A8189810E9453
:10108000CA08ADCF0E94DF08AACF8FEF8883A7CF11
:101090000E9474098983A3CF0E9476099827892723
:1010A00098279A8389839BCF6B8170E089819A818D
:1010B000AE014C5F5F4F9827892798270E947909D6
:1010C0008ECF6B8170E089819A81AE014C5F5F4F5A
:1010D0009827892798270E94A00981CF0E94CB09D1
:1010E0007ECF0E949F08D6CF6B8170E089819A8164
:1010F000AE014C5F5F4F9827892798270E941709F8
:101100006ECF6B8170E089819A81AE014C5F5F4F39
:101110009827892798270E943D0961CF0E94780768
:101120005ECF0E949819FFEF21EE84E0F15020403D
:101130008040E1F700C000000E941C1950CF84E0FD
:10114000089550E0440F551F9CE0699F400D511DCC
:10115000112490E6899F400D511D1124CA018696E5
:1011600008950F931F93CF93DF930E94A1088C01E2
:101170000E947420C82FD0E0DC2FCC27C801019634
:101180000E9474209E01282BC901DF91CF911F91ED
:101190000F9108950F931F93CF93DF93122F032F77
:1011A0000E94A108EC01602F0E948220612FCE01D5
:1011B0000196DF91CF911F910F910C948220AF92F5
:1011C000BF92CF92DF92EF92FF921F93CF93DF9364
:1011D0008CEAC82E80E0D82ED0E07601C0E014C0A2
:1011E000F50125913491412F6C2F8D2F0E94CA0853
:1011F00082E0A80EB11C1F5F163091F78CE0E80E5C
:10120000F11CCF5FC83019F0570110E0E9CFDF5F64
:1012100080E6C80ED11CD43001F7DF91CF911F9129
:10122000FF90EF90DF90CF90BF90AF900895EF9236
:10123000FF920F931F93CF93DF93EC018A017C0100
:10124000E60EF71ECE018696CE15DF0539F4DF9146
:10125000CF911F910F91FF90EF900895C03821E03A
:10126000D20740F40E947420F80180830F5F1F4F63
:101270002196E8CFF8011082F9CFCF92DF92EF925A
:10128000FF920F931F93CF93DF937C016A018C0130
:10129000060F171FEC01CE018696C017D10749F43F
:1012A000DF91CF911F910F91FF90EF90DF90CF9042
:1012B0000895C03821E0D20740F4FE01EE19FF097D
:1012C000EC0DFD1D60810E9482202196E4CF462F07
:1012D000843038F4783028F4663018F4672F0C9492
:1012E000B10890E080E0089580E108958AE592E0F9
:1012F0000895EF92FF920F931F93CF93DF93EC012A
:101300008A017C01E60EF71ECE018A559E4FCE154E
:10131000DF0539F4DF91CF911F910F91FF90EF908E
:101320000895CA3522E0D20740F40E947420F801E3
:1013300080830F5F1F4F2196E7CFF8011082F9CF0E
:10134000CF92DF92EF92FF920F931F93CF93DF9391
:101350007C016A018C01060F171FEC01CE018A5532
:101360009E4FC017D10749F4DF91CF911F910F9184
:10137000FF90EF90DF90CF900895CA3522E0D2071A
:1013800040F4FE01EE19FF09EC0DFD1D60810E9485
:1013900082202196E3CFCF93DF93C6EAD1E060E0CD
:1013A000CE010E9482202196C11584E0D807B9F7AA
:1013B000DF91CF910895DF92EF92FF920F931F93E9
:1013C000CF93DF9300D000D0CDB7DEB7F82E8FE0FB
:1013D0008F1540F08FEF93E00E94742006EA11E031
:1013E0008823C1F00F900F900F900F90DF91CF9155
:1013F0001F910F91FF90EF90DF900895011584E009
:10140000180781F3C8010E947420811101C0FA9469
:101410000F5F1F4FF110F2CF19821A821B821C82BC
:10142000DD24D39478018FEFE81AF80AC8010E94EE
:10143000742089831A828823A9F29FEF980F933032
:1014400078F48A83D9820E5F1F4FC7010E947420EF
:101450008B83882339F2CE0101960E941F03E2CFCD
:101460008701F9CF0F931F93CF93DF93C42FD22F10
:10147000FC0182818823C9F0409330010E94D11879
:1014800090932F0180932E0180E28C0F883008F01A
:1014900050C0C77081E001C0880FCA95EAF7DF919C
:1014A000CF911F910F910C94240F109130011413C0
:1014B00035C080912E0190912F010E94E918843F40
:1014C000914060F5C0E2CD0F1D17B9F080E2810FA9
:1014D000883040F4177081E001C0880F1A95EAF750
:1014E0000E942B0FC83048F481E09D2F977001C0F7
:1014F000880F9A95EAF70E94240F802F0E94110FFF
:10150000C830B8F4D77081E001C0880FDA95EAF7E7
:10151000DF91CF911F910F910C942B0F80E28C0FD4
:10152000883038F4C77081E001C0880FCA95EAF7A7
:10153000EFCFDF91CF911F910F9108950F939C01F1
:10154000CB01243F4CE5340759F1A8F4293DFCE5D3
:101550003F0701F12A3D4CE53407D1F1283D3C45D8
:1015600091F406E221EE41EE68ED7CE50E94320A3C
:1015700080E00F910895263FFCE53F07E9F0B0F0C9
:10158000273F3C45F9F0FC018281882339F1109214
:101590003001EFCF07E225EE45EE69ED7CE5E6CFC1
:1015A00006E221EE40EE64EF7CE5E0CF07E225EEB7
:1015B00044EE65EF7CE5DACF06E221EE42EE66EF1F
:1015C0007CE5D4CF07E225EE46EE67EF7CE5CECF93
:1015D00008E221E045EE6AED7CE5C8CF81E0C9CFA5
:1015E000CF93DF93EC01FB018281882309F419C1B9
:1015F000C230FCE5DF07C0F1C6319CE5D90730F009
:101600009E012B5F3C452930310570F50E94621721
:101610009093D2018093D101C031ECE5DE0709F44B
:10162000CFC008F05BC0C8308CE5D80709F4B6C05D
:1016300088F5C430ECE5DE0709F4A8C0C0F4C23078
:101640008CE5D80709F49CC08091D1018260C33039
:10165000DC4509F498C08091D1019091D2010E949B
:1016600070170E94601180E0DF91CF910895809102
:10167000D1018061C630ECE5DE0709F484C08091B9
:10168000D1018860C730DC4508F47DC08091D1016C
:10169000806279C0CC308CE5D80709F489C070F439
:1016A0008091D1018C60CA30ECE5DE0709F46BC093
:1016B00008F478C08091D1018E7F65C0CE308CE572
:1016C000D80709F479C08091D1018B7FCF30DC45F8
:1016D00008F459C08091D1018F7E55C0CC3FECE514
:1016E000DE0709F457C030F5C3318CE5D80709F49B
:1016F0006FC078F4C131ECE5DE0709F465C0C23192
:10170000DC4509F0A8CF0E9460118091D1018F774C
:101710003AC0C5318CE5D80709F462C008F476C038
:101720008091D2018160CB3FDC4509F094CF80935A
:10173000D20191CFC115FDE5DF0709F44DC088F452
:101740008091D2018D7FCE3F9CE5D90781F38091B6
:10175000D2018E7FCF3FDC4550F38091D201836070
:10176000E6CFC230FDE5DF0709F459C008F444C0F4
:1017700080E0C330DD4509F06ECF0E94F5176BCFD6
:101780008091D10181608093D10165CF8091D10199
:101790008460F9CF8091D2018260C9CF8091D1015C
:1017A0008064F1CF0E9460118091D1018068EBCFFD
:1017B0008091D1018D7FE7CF8091D101877FE3CFE9
:1017C0008091D1018F7DDFCF8091D1018F7BDBCFE5
:1017D0008091D101837FD7CF8091D2018C7FA7CF19
:1017E0008091D10182FB992790F921E0922790FB0B
:1017F00082F990FB83F9C7CF8091D201982F909501
:1018000091708E7F892B90FB81F991CF0E9460119E
:101810009091D101892F97FB87F98058B4CF81E04F
:10182000ACCF81E021CFCF93DF93EB0186319C4594
:1018300011F50E94A7169A81992399F08A7A91E06E
:1018400009F490E090933101811109C089E20E946E
:1018500082160E94E61680E0DF91CF91089585E31D
:10186000F6CF80913101811104C089E20E9489166E
:10187000F0CF85E3FBCF81E0EFCF8EE14A9B02C042
:101880008150E1F74A9BFECF08955A9880E28A95ED
:10189000F1F75A9A0895FC013BE03A95F1F798E088
:1018A00020E080E031E040E14A95F1F7880F4A9B63
:1018B00002C08160232742E04A95F1F7000040E131
:1018C0004A95F1F7915079F790E19A95F1F799B12E
:1018D00032E03A95F1F7000040E14A95F1F792FBCA
:1018E000992790F992272081920F90830895EF9283
:1018F000FF920F931F93CF93DF930F92CDB7DEB775
:1019000019828C017C01E60EF11C0E151F0561F495
:1019100081E09981911180E00F90DF91CF911F912B
:101920000F91FF90EF9008950E943D0CCE0101961B
:101930000E944B0CF80181938F01E7CF9093330104
:1019400080933201529A5A9A08959093330180936A
:10195000320152985A9AEA9AE9E6F0E080818F7C47
:10196000808308956150770B91E001C0990F6A95CB
:10197000EAF720E031E0911108C0222391F05A9A51
:1019800080E28A95F1F75A980895492F482339F053
:101990005A9A232740E24A95F1F79695ECCF5A9848
:1019A000F9CF5A98EDCFFF920F931F93CF93DF9308
:1019B000EC018C01060F111DC017D10731F4DF9126
:1019C000CF911F910F91FF900895F9900E94450CBF
:1019D00068E08F2D0E94B20CEFCF1F920F920FB6CE
:1019E0000F9211242F933F934F935F936F937F93A5
:1019F0008F939F93AF93BF93CF93DF93EF93FF9317
:101A00005A98529AC0913201D09133016D81662368
:101A100021F08E819F810E94D30C0E94450C80E1B1
:101A20008A95F1F75A9852985A9A80E18A95F1F777
:101A30006A81662309F18B819C810E94770CE88181
:101A4000F981882311F088E001C082E080830E9440
:101A50003D0CFF91EF91DF91CF91BF91AF919F919D
:101A60008F917F916F915F914F913F912F910F9047
:101A70000FBE0F901F901895E881F981E4CFCF93A6
:101A8000DF93C0913201D0913301F894529A5A9861
:101A900085E08A95F1F7000052985A9A80E28A957B
:101AA000F1F74A9B0CC0529A5A9AE881F98181E079
:101AB0008083789481E090E0DF91CF9108956D81EB
:101AC000662381F08E819F810E94770C81110AC06C
:101AD000529A5A9AE881F98182E08083789482E070
:101AE00090E0EACF0E943D0C80E28A95F1F75A9887
:101AF000529A80E18A95F1F76A81662321F08B8101
:101B00009C810E94D30C0E94450CE881F9811082CF
:101B1000789490E080E0D0CF9093390180933801A1
:101B20000895E0913801F0913901309721F001904A
:101B3000F081E02D099480E00895E0913801F09162
:101B40003901309721F00280F381E02D0994089546
:101B500020913601309137012817390771F09093A1
:101B6000370180933601E0913801F09139013097C7
:101B700021F00680F781E02D099408952091340129
:101B8000309135012817390771F090933501809312
:101B90003401E0913801F0913901309721F000844F
:101BA000F185E02D0994089585B7806885BF85B7D4
:101BB000806885BF0895089508950C94DB0D0895FD
:101BC0000C94DF0D0E94D40D0E94DC0D0C94DD0DF1
:101BD0000C94E406089508950E94C8180E94CB054D
:101BE0000E948B070E9443190C94E00DBF92CF9284
:101BF000DF92EF92FF920F931F93CF93DF93CDB7B6
:101C0000DEB72A970FB6F894DEBF0FBECDBF0E9495
:101C1000EA0D0E94EB0D0E9435060E94E80D882314
:101C200009F45CC08BE3C82E81E0D82E10E000E000
:101C3000B02E802F0E94A805E82EF601F1906F01CA
:101C4000F81609F445C08091AF0181FD0E94AE05F0
:101C50009F2D9E2580E0FF24F394292F2F21A1F1B1
:101C60008E83BF82EF2081E009F480E088870E94A4
:101C7000D1188160782F9A8789874E815F81688526
:101C80008A850E948F0EF801E55CFE4F8081F82660
:101C9000F0820E94910D90913A01891781F10E9482
:101CA000910D80933A012A960FB6F894DEBF0FBECD
:101CB000CDBFDF91CF911F910F91FF90EF90DF90FB
:101CC000CF90BF900C94ED038F5FFF0C863029F608
:101CD0000F5F1F4F0830110509F0AACF8FEF8983DE
:101CE0008A831B820E94D1188160782F9D838C8308
:101CF00049815A816B818D810E948F0ECACF2A96AD
:101D00000FB6F894DEBF0FBECDBFDF91CF911F910C
:101D10000F91FF90EF90DF90CF90BF900895CF93F9
:101D2000DF93CDB7DEB72B970FB6F894DEBF0FBEAB
:101D3000CDBF4F83588769877A878B871E821D8224
:101D400085E0FE013796DE01119601900D928A958D
:101D5000E1F749815A816B817C818D819E812B962F
:101D60000FB6F894DEBF0FBECDBFDF91CF910C94BC
:101D70001314FC01808191810C945416CF93C82FC9
:101D8000882329F18CEF8C0F813AA0F46C2F80917D
:101D9000090190910A010E940C18882329F08C2FC8
:101DA0000E9489160E94E6168C2F0E948216CF91FF
:101DB0000C94E61680E28C0F883048F4C77081E0FE
:101DC00001C0880FCA95EAF70E94AA16F0CFCF91FA
:101DD0000895882329F19CEF980F913A20F40E94EE
:101DE00089160C94E61690E2980F983050F487709C
:101DF00091E001C0990F8A95EAF7892F0E94B016E9
:101E0000F0CF9BE5980F933020F490E080E00C94A5
:101E1000A80D885A873120F490E080E00C94BE0D24
:101E20000895CF93C82F0E94BE0EC93349F42FEFF7
:101E300087EE93E0215080409040E1F700C0000021
:101E40008C2FCF910C94E90E882321F00E94AA16C2
:101E50000C94E6160895882321F00E94B0160C9485
:101E6000E6160895BF92CF92DF92EF92FF920F9302
:101E70001F93CF93DF936C01D62FC72FFC011581E1
:101E800012951F70028101110E94C7160E94A016B0
:101E9000E82E882391F00023E9F08C2F807F803496
:101EA00021F080E28D0F8830A8F082E00E94311787
:101EB0000E94A01691E0E82EE926BC2EB2949FE085
:101EC000B922FBE0FB15A8F1EB2DF0E0E553FF4D47
:101ED0000C946720E12CF1CF1C2F1F70C07F11F0F4
:101EE0001295107F0023A9F0112359F080E28D0F85
:101EF000883010F0D11109C0812F0E94AA160E94CB
:101F0000E6168D2F0E94BE0E14C0812F0E94BA16B5
:101F1000F6CF8D2F0E94E90E112359F080E28D0F2C
:101F2000883010F0D1112CC0812F0E94B0160E9471
:101F3000E6162B2D2850330B2430310520F40E9457
:101F4000910D0E94ED03EE2009F467C10E949C16DA
:101F500080FD63C1F60112820E9496160E941F1531
:101F6000C6010E942E110E949616DF91CF911F91FB
:101F70000F91FF90EF90DF90CF90BF900C944015A1
:101F8000812F0E94C016D3CF2C2F2F70F22EC07F2E
:101F9000C03219F0F29480EFF822DD2369F0D130DD
:101FA00049F1002391F1112351F1F601858180FF60
:101FB000A8CF8F70858323C0002381F0111106C044
:101FC0000E94CD168F290E94240FB3CF1130C1F784
:101FD0000E94CD168F290E94D316ABCF111106C0D7
:101FE0000E94DC168F2D0E942B0FA3CF113009F415
:101FF000A0CFF6CF002329F0163008F09ACF8F2D0E
:10200000E2CF153008F095CFEDCF112359F3D93336
:1020100049F4FFEF27EE33E0F15020403040E1F784
:1020200000C000008D2F0E94E90E83CF8C2F83709B
:1020300009F041C001117DCF4D2F42954695477063
:10204000440F440F0D2F0F7010E030E020E0042EFD
:1020500004C0000F111F221F331F0A94D2F760E043
:1020600070E0CB01D4FF0FC06FE070E080E090E043
:1020700004C0660F771F881F991F4A95D2F7609595
:10208000709580959095C695C695C370602B712B01
:10209000822B932BC23049F058F4C13019F00E94C2
:1020A000D11447CF0E94BF1444CF0E94E31441CF04
:1020B0000E94BD143ECF8695002311F08C2F8170B5
:1020C000882309F436CF4D2F429546954770440F2B
:1020D000440F0D2F0F7010E030E020E0042E04C0FC
:1020E000000F111F221F331F0A94D2F760E070E027
:1020F000CB01D4FF0FC06FE070E080E090E004C03F
:10210000660F771F881F991F4A95D2F760957095C3
:1021100080959095C695C695C370602B712B822BC8
:10212000932BC23049F058F4C13019F00E94961533
:1021300000CF0E948415FDCE0E94A815FACE0E9401
:10214000F914F7CECF70002329F08C2F0E941F15B1
:102150008D2F39CF8D2F0E942B0F8C2F0E94401571
:10216000E8CED23F89F160F4D03FC9F0D13F29F1E8
:10217000002309F442C01111C4CE8C2F8F7121C0ED
:10218000D33F39F1D43FA1F7002369F1CF718C2FF0
:102190000E941F1563E08C2F0E941C17CACE0023DB
:1021A00041F0153008F0C5CE8C2F8F710E94631559
:1021B000C0CE163008F0BDCEF7CF8C2F8F71002324
:1021C00069F20E941F15B5CE8C2F8F710023C9F3C1
:1021D000C5CF002329F08C2F8F710E940A15A9CE3C
:1021E0000E940515A6CE81E00E943117123008F436
:1021F000A0CE82E00E9431179CCE112359F0D93332
:1022000009F010CF8FEF97EEE3E081509040E0406F
:10221000E1F706CF8C2F8F71A1CFDF91CF911F9166
:102220000F91FF90EF90DF90CF90BF9008950F93A4
:102230001F93CF93DF93EC01688179818A810E949B
:102240005E168C010E94BA150E94BC14B801CE0122
:10225000DF91CF911F910F910C94320FCF93DF93A9
:10226000EC018B819C81892B29F0888199818923BC
:102270008F3F59F4DF91CF910895CE010E9417113D
:10228000CE01DF91CF910C946002CE010E94A40395
:102290008111F3CF0E94A016882361F38A818823DD
:1022A00049F382E0DF91CF910C9431170E94C71659
:1022B0000E94CA160C94E6160E9490160C945611B1
:1022C0000E94B7160C945C11E92FE295EF70E25072
:1022D000EE3070F4F0E0E952FF4D0C946720803F3F
:1022E00019F020F4883E20F481E00895843FE1F362
:1022F00080E00895883EC0F3813FD1F7F5CF93FB8E
:10230000882780F908950E9454160C946411CF9385
:10231000DF9300D000D00F92CDB7DEB70F900F90B3
:102320000F900F900F90DF91CF910895CF93DF938F
:1023300000D000D000D0CDB7DEB726960FB6F89407
:10234000DEBF0FBECDBFDF91CF9108951F93CF9316
:10235000DF93C091440116E0809145018C1304C0C5
:10236000DF91CF911F910895D0E01C9FF0011D9F38
:10237000F00D1124EA5BFE4F40815181628173812F
:10238000848195810E9496112196C770E5CF409176
:102390007601509177016091780170917901809177
:1023A0007A0190917B010C949611209144019091B7
:1023B000450156E0291302C080E0089530E0529FA5
:1023C000F001539FF00D1124EA5BFE4F71817613EB
:1023D00006C07081781303C07281741304C02F5F2C
:1023E0003F4F2770E7CF81E008951F93CF93DF938E
:1023F00080917B01807FA9F480917801882389F006
:1024000080914401C09145016091760170917701FE
:10241000A0917901B0917A01D62FD72316E0C81385
:1024200004C0DF91CF911F91089590E0109711F0B3
:10243000DF3F19F401968770F2CF189F9001199F22
:10244000300D1124F901EA5BFE4F41814713F2CFB1
:1024500040814613EFCF42814111ECCF438154813B
:102460004A1B5B0B443F514028F780917B018F70E2
:10247000806180937B01F901E55BFE4F80818F7065
:102480008061808386E791E00E942E11DF91CF91D9
:102490001F910C94A6118F929F92AF92BF92CF92F0
:1024A000DF92EF92FF920F931F93CF93DF93CDB7FD
:1024B000DEB761970FB6F894DEBF0FBECDBF8C01BB
:1024C00085E0F801DE011D9601900D928A95E1F7F5
:1024D000D801EC901196FC9011971296CC9012971F
:1024E00086E7A82E81E0B82E4091790150917A01BB
:1024F0004115510509F475C190917601209177013C
:10250000892F82238F3F09F46CC113968D909C9084
:102510001497D0907801F401E41BF50BAF01DD2096
:1025200009F40AC180917B01382F307F443F51402C
:1025300008F0C1C0311189C0DC2C2F1126C09E11BA
:1025400024C0C11022C08F70806180937B010E94E3
:10255000C711C5010E942E1180917B01D8011596EB
:102560008C938D2D61960FB6F894DEBF0FBECDBF54
:10257000DF91CF911F910F91FF90EF90DF90CF905F
:10258000BF90AF909F908F9008958114910429F08F
:102590008F2D8E218F3F09F043C180E080FF15C051
:1025A0004C2D6F2D8E2D0E94D511882371F086E75A
:1025B00091E00E942E1186E0E6E7F1E0DF011D9236
:1025C0008A95E9F70E94C7113EC0892829F08F2D0E
:1025D0008E218F3F09F021C180E0B82FB170AB2E62
:1025E00080FF29C04C2D6F2D8E2D0E94D511B82E45
:1025F000811121C0ED86FE868D859E850E94541630
:10260000292F22952F70223050F0243078F49F70BB
:1026100051F0F8019581907F31F4DB2CA2CF9F70AF
:1026200011F08823D1F3805E8830B8F3C8010E948E
:102630002E11BA2CF2CFCC2009F493CF80917B01DC
:10264000816080937B01D12C8CCF2F1105C09E110E
:1026500003C0CC2009F48DC0ED86FE868D859E8555
:102660000E948311882319F1CC2009F180917B010C
:10267000803270F0209176013091770138872F8376
:1026800019869B868A868C87CE0107960E942E111A
:1026900086E0F801A6E7B1E001900D928A95E1F796
:1026A0000E94F5110E94C711DD24D3945ACFC801AE
:1026B0000E942E11F9CF311112C0782D998A888A83
:1026C000A7016C2D89890E94871186E791E00E94FD
:1026D0002E1186E0F50111928A95E9F773CF2F113B
:1026E0000FC09E110DC0C1100BC015968C93C80170
:1026F0000E942E1186E0F50111928A95E9F731CFFB
:10270000ED86FE868D859E850E948311882379F251
:10271000CC2069F280917B01803208F4B9CF2091FE
:102720007601309177013A8329831B829D828C82C6
:102730008E83CE010196AACF443F514008F043C09A
:10274000DC2CCC2009F4B3CF2F112CC09E112AC051
:1027500080917B0180FD1DC0982F907FD1F0159650
:102760008C931597903F39F0982F907F905F8F70E2
:10277000892B15968C93C8010E942E1186E0F801D2
:10278000A6E7B1E001900D928A95E1F70E94C7118A
:10279000E8CE86E0F801A6E7B1E001900D928A95B7
:1027A000E1F7DFCEED86FE868D859E850E94831142
:1027B00081116ECF80917B01816080937B01C80184
:1027C0000E942E11CECE782D998A888AA7016C2D71
:1027D00089890E94871186E0F50111928A95E9F7AF
:1027E000D5CFCC2009F463CFED86FE868D859E85FE
:1027F0000E948311D82E882309F459CF86E0F8016E
:10280000A6E7B1E001900D928A95E1F786E791E0A5
:102810000E94B90E0E94F511B9CF81E08C25DDCE62
:1028200081E08C25BBCE1F93CF93DF93CDB7DEB76E
:102830002C970FB6F894DEBF0FBECDBF4F835887DD
:1028400069877A878B879C87CE0107960E944B12F7
:10285000882369F08A859B85892B39F04F815885BB
:10286000842F85238F3F09F071C016E05FC086E09A
:10287000FE013796DE01119601900D928A95E1F7DF
:102880008A859B85892B89F38F81988589238F3F42
:1028900061F32091450130E0C901019687709927C5
:1028A000409144014817190671F40E94601110927A
:1028B00045011092440186E0E6E7F1E0DF011D9258
:1028C0008A95E9F7D2CF96E0929FD001939FB00D01
:1028D0001124AA5BBE4FFE01319601900D929A958C
:1028E000E1F7809345010E94A611BFCF819FC001EF
:1028F00011248A5B9E4F0E944B128823E9F0E091DD
:1029000044011E9FF0011124EA5BFE4F408151817A
:1029100062817381848195810E9496118091440126
:1029200090E001968770992780934401809144013B
:10293000909145018913DACF2C960FB6F894DEBF3B
:102940000FBECDBFDF91CF911F91089569857A8524
:102950008B859C850E94961188CF08950C94AD14A8
:102960000E94AE1460939E0170939F018093A0011A
:102970009093A1010C94561108950C94B0140F93E8
:102980001F9300919E0110919F012091A001309111
:10299000A101602B712B822B932B1F910F910C9413
:1029A000B0140F931F9300919E0110919F012091ED
:1029B000A0013091A10160237123822393231F91F1
:1029C0000F910C94B0140F931F9300919E011091DE
:1029D0009F012091A0013091A101602771278227DA
:1029E00093271F910F910C94B0140C94AD140C9478
:1029F000F5140E94F71460939A0170939B018093E1
:102A00009C0190939D010C94561160E070E0CB0105
:102A10000C94F9140F931F9341E050E060E070E0D4
:102A20008A019B0104C0000F111F221F331F8A95CA
:102A3000D2F7C901B8011F910F910C94F9140F93AB
:102A40001F9341E050E060E070E004C0440F551F68
:102A5000661F771F8A95D2F780919A0190919B010A
:102A6000A0919C01B0919D018A019B01082B192B1B
:102A70002A2B3B2BC901B8011F910F910C94F9141B
:102A80000F931F9341E050E060E070E004C0440FFA
:102A9000551F661F771F8A95D2F7CB01BA01609543
:102AA00070958095909500919A0110919B012091CD
:102AB0009C0130919D0160237123822393231F91F8
:102AC0000F910C94F9140F931F9341E050E060E0D4
:102AD00070E004C0440F551F661F771F8A95D2F718
:102AE00080919A0190919B01A0919C01B0919D01D0
:102AF0008A019B01082719272A273B27C901B8010A
:102B00001F910F910C94F9140F931F9300919A0148
:102B100010919B0120919C0130919D01602B712BA4
:102B2000822B932B1F910F910C94F9140F931F93E9
:102B300000919A0110919B0120919C0130919D017F
:102B400060237123822393231F910F910C94F91416
:102B50000F931F9300919A0110919B0120919C016A
:102B600030919D0160277127822793271F910F9134
:102B70000C94F9140895E92FEE0FE90FEE0F8E0F64
:102B8000982F977041E001C0440F9A95EAF7869517
:102B90008695869595E0899FF0011124E458FE4FB3
:102BA00030E020E070E05191DF011197CB01022E5F
:102BB00002C0969587950A94E2F7817081958527E2
:102BC000842385278C932F5F3F4F2530310559F79C
:102BD0000895E92FEE0FE90FEE0F8E0F982F9770E3
:102BE00086958695869525E0829FF0011124E4580C
:102BF000FE4F50E040E080E0219130E0092E02C01D
:102C0000369527950A94E2F721703327042E01C0E8
:102C1000220F0A94EAF7822B4F5F5F4F4530510530
:102C200059F70895BF92CF92DF92EF92FF920F93E0
:102C30001F93CF93DF938C01C0909A01D0909B019A
:102C4000E0909C01F0909D0180919E0190919F01E8
:102C5000A091A001B091A101C82AD92AEA2AFB2A91
:102C6000CFE1D0E0BC2ED701C6010C2E04C0B69532
:102C7000A795979587950A94D2F780FD0EC0219766
:102C800088F7B12C8B2DDF91CF911F910F91FF9081
:102C9000EF90DF90CF90BF900895B8018C2F0E94E5
:102CA000F503019761F3EECFCF93DF93EC010E9420
:102CB0001216BE01DF91CF910C94F5031F93CF93B1
:102CC000DF93EB0190914301992331F0CB01DF9128
:102CD000CF911F910C945416882379F0CB010E9458
:102CE0001216182F682FCE010E94BB15BE01812F2E
:102CF000DF91CF911F910C94F503CB010E94E91550
:102D0000182FF4CF682F8091090190910A010C943B
:102D10004218682F8091090190910A010C9444187F
:102D20008091090190910A010C9446188091A201AA
:102D300085958595859508958091A2018770089560
:102D40009091A201977081E009F480E0089580914C
:102D5000AE0108959091AE01892B8093AE01089544
:102D600080959091AE0198239093AE0108951092B2
:102D7000AE0108959091AD01892B8093AD01089526
:102D800080959091AD0198239093AD010895109294
:102D9000AD0108951092AC0108958091A3010895AA
:102DA00008950C94D0169091A301981721F0809368
:102DB000A3010C94D11608958091A301882329F0D2
:102DC0001092A30180E00C94D1160895E0910901BE
:102DD000F0910A018091AE018083E0910901F091A8
:102DE0000A0180819091AD01892B8083E0910901D6
:102DF000F0910A0180819091AC01892B80839091A0
:102E0000A301992381F0E0910901F0910A018081E9
:102E1000892B80838091090190910A010E94FA1701
:102E200081110E94DC168091090190910A010C9495
:102E30009D0D08950C94191798E0899F9001112415
:102E4000622B6093A2010E941F158091A2018595BB
:102E5000859585950C941A171092A20180E00C9428
:102E60001A179091A201809589238093A201282F9F
:102E7000277071F4282F082E000C330B92171306BD
:102E800039F08595859585950E9440150C942C17F1
:102E900008956FEF7FEF90E080E00C94A02090E029
:102EA00080E00E947C2021E08C3E9E4F09F020E0D3
:102EB000822F089582E090E00C94742083E090E0EB
:102EC0000C947420CF9384E090E00E947420C82F6B
:102ED00081E290E00E947420982F8C2FCF9108956A
:102EE000CF93C92F682F84E090E00E9482206C2F3E
:102EF00081E290E0CF910C948220AB01BC018FE085
:102F000090E00C949420AB01BC0183E190E00C9420
:102F1000942060E070E0CB010C94831760E070E0D7
:102F2000CB010E947D170C9489176CEE7EEF90E028
:102F300080E00E94A02060E082E090E00E94822079
:102F400060E083E090E00E94822010929E01109247
:102F50009F011092A0011092A10160E084E090E036
:102F60000E94822060E081E290E00E94822060E086
:102F700085E090E00E94822060E086E090E00E9480
:102F800082206FEF87E090E00E94822040E050E0D6
:102F9000BA0188E090E00E94942060E08DE090E02B
:102FA0000E94822040E050E0BA0188E190E00E9457
:102FB000942060E087E190E00E94822040E050E0B1
:102FC000BA018CE190E00E94942060E080E290E001
:102FD0000E94822040E050E0BA0188E190E00E9427
:102FE00094200C948E170C949517682F8EE090E027
:102FF0000C9482209C012E5F3F4FAC01485F5F4FD5
:1030000080E02417350709F40895F90191919F0193
:103010009923B9F38F5FF5CF662349F0FC0132960F
:1030200008962191261729F0E817F907D1F780E0D3
:10303000089581E008959C01FC0132969FEF80E0A5
:103040004191461751F09F3F19F4411101C0982F4B
:103050008F5F8630A9F79F3F09F40895290F311D2E
:1030600097FD3A95F90162830895FC01329608961E
:103070002191261303C0DF0111971C92E817F9076D
:10308000B9F708950C941B180C943518029626E095
:10309000FC0111922A95E9F70895089508950C947A
:1030A0004E180E944F188091D701843049F1109238
:1030B000B00188E190E020E40FB6F894A8958093E1
:1030C00060000FBE2093600080E00E94ED030E942C
:1030D0004F1883B7817F846083BF83B7816083BFCC
:1030E0007894889583B78E7F83BF0FB6F894A895A0
:1030F00080916000886180936000109260000FBE34
:1031000008950895CF930E944D180E9435060E949D
:103110008118C0E08C2F0E94A805811105C0CF5FE7
:10312000C830C1F7CF91089581E0FCCF08950C9489
:1031300096180E9460110E94910D0E94ED030C945C
:1031400097181F921FB61F9211248F939F93AF93CE
:10315000BF938091B001811113C08091CD019091F6
:10316000CE01A091CF01B091D0014196A11DB11D1A
:103170008093CD019093CE01A093CF01B093D00165
:10318000BF91AF919F918F911F901FBE1F90189577
:1031900082E084BD93E095BD9AEF97BD80936E0069
:1031A00008952FB7F8948091CD019091CE01A09110
:1031B000CF01B091D0012FBF08952FB7F89460913F
:1031C000CD017091CE018091CF019091D0012FBFA0
:1031D00008959C014FB7F8948091CD019091CE0154
:1031E000A091CF01B091D0014FBF821B930B0895E6
:1031F00078941F921FB61F9211248F939F93AF93C1
:10320000BF938091CD019091CE01A091CF01B0915B
:10321000D0010196A11DB11D8093CD019093CE01E7
:10322000A093CF01B093D001BF91AF919F918F91A7
:103230001F901FBE1F90189587E797E7909301088E
:103240008093000888E19AE00FB6F894A8958093DF
:1032500060000FBE90936000FFCF0C9478070E942F
:1032600035068FE39CE90197F1F700C000000E944A
:10327000350680E00E94A80580FF04C00E942D1939
:103280000C941C1908950E944F17811102C00E94CE
:10329000F3170E945A178093AF010E946217909310
:1032A000D2018093D1010E945E17682F70E090E0F8
:1032B00080E00E94BD1460919A0170919B01809101
:1032C0009C0190919D010C94F7148091B90108958F
:1032D00008950895CF93DF93EC0181E08093E90096
:1032E0008FEF9091E800815095FD06C095ED9A957D
:1032F000F1F700008111F5CF8091E80085FF14C03F
:1033000050E040E068E070E0CE010E94871B8091B1
:10331000E8008E778093E80088E0FE01A1EBB1E041
:1033200001900D928A95E1F7DF91CF91089508956C
:10333000CF93FC01603221F58091D701843001F5F3
:10334000C091E900CF702091EC00922F917020FD88
:1033500090E8C92B82E08093E9008091E80080FF2B
:103360000CC050E040E060E270E0CF010E94871B9B
:103370008091E8008E778093E800CF70C093E900D9
:10338000CF9108958091D601811109C00E94661DD8
:103390000E94C31D8091E20084608093E200089542
:1033A0001092D6010895089508950C94991842E05A
:1033B00061EC81E00E94E21C42E261EC82E00E944A
:1033C000E21C42E260EC83E00C94E21C8091D901A3
:1033D000833009F45FC030F48130C1F1823009F4E8
:1033E0009BC008958A3009F487C08B3009F46DC002
:1033F000893009F04EC08091D801813209F049C06E
:103400008091DC019091DD01892B09F042C080910F
:10341000E800877F8093E8008091E80082FF35C054
:103420009091F3008091F200029729F48091F100CD
:103430008B7F813021F48091F1008093B9018091DC
:10344000E8008B778093E8000C94161D8091D801DA
:10345000813AF9F48091E800877F8093E8008091B9
:10346000DC019091DD01892B61F468E081EB91E052
:1034700070E00E94251C8091E8008B778093E80023
:10348000089560E090E080E0F3CF8091D701811152
:10349000C3CF08958091D801813AD9F78091DC019A
:1034A0009091DD01892BA9F78091E800877F8093B7
:1034B000E8008091E80080FFFCCF809115018093A7
:1034C000F1008091E8008E77BDCF8091D8018132E4
:1034D00001F78091DC019091DD01892BD1F680917B
:1034E000E800877F8093E8000E94161D8091DA0132
:1034F000809315010C9460118091D801813249F6B6
:103500008091E800877F8093E8000E94161D8091DB
:10351000DB018093BA0108958091D801813A09F0C6
:10352000B8CF8091E800877F8093E8008091E80021
:1035300080FFFCCF8091BA01C2CFCDB7DEB7A09794
:103540000FB6F894DEBF0FBECDBF84B7877F84BFB0
:103550000FB6F894A8958091600088618093600010
:10356000109260000FBE80E890E00FB6F894809350
:103570006100909361000FBE0E94E20D0E94661DE3
:103580000E94C31D8091E20084608093E2007894E1
:103590000E944C200E94EC0D8BE091E00E948C0D6B
:1035A00013E08091D701853059F00E94F60D80918B
:1035B000D701843091F00E94EA0D0E94EB0DF1CF0B
:1035C0000E9451188091D501882359F30E948218D6
:1035D000882339F30E94711BE4CF1093E900809196
:1035E000E80082FFE8CF8091E80090E085FF09C005
:1035F00050E040E060E270E0CE0101960E94D61BF0
:1036000091E08091E8008B778093E800992399F20C
:1036100060E2CE0101960E94DA07CDCF0C94101B18
:10362000E92FFF27E330F105E9F060F4E130F1051F
:1036300009F448C0329709F44AC0F0E0E0E090E0B5
:1036400080E025C0E132F10571F1E232F105A9F720
:103650006115710509F440C082E493E061307105A1
:10366000B1F0EBCF992781309105B1F0009749F087
:10367000029719F7ECECF2E0E491F0E08CEC92E0C8
:1036800006C0EAEEF2E0E491F0E08AEE92E0DA01C0
:103690008D939C93CF010895ECEDF2E0E491F0E07E
:1036A0008CED92E0F4CFE9E0F0E080E093E061158A
:1036B000710569F3E9E0F0E089E193E061307105BB
:1036C00031F3BBCFE2E1F0E080E393E0E0CFE2E46E
:1036D000F0E08EEE92E0DBCFE0E4F0E084E693E011
:1036E000D6CF80E189BD82E189BD09B400FEFDCF5E
:1036F0008091D8008F7D8093D8008091E000826017
:103700008093E0008091E00081FDFCCF0895AF92AE
:10371000BF92CF92DF92FF920F931F93CF93DF93CD
:103720006C01EB018A010E94351DF82E811123C026
:103730000115110539F0F80180819181C81BD90B61
:10374000C80ED91EB12CA12C2097A9F08091E800B9
:1037500085FD22C08091E8008E778093E8000115F6
:103760001105A1F0F80180819181A80EB91EB182E6
:10377000A08285E0F82E8F2DDF91CF911F910F91C0
:10378000FF90DF90CF90BF90AF9008950E94351DBD
:103790008823D1F2F82EEFCFF60181916F0180934B
:1037A000F1002197FFEFAF1ABF0ACECFAF92BF92C1
:1037B000CF92DF92FF920F931F93CF93DF936C0111
:1037C000EB018A010E94351DF82E811123C00115DD
:1037D000110539F0F80180819181C81BD90BC80E01
:1037E000D91EB12CA12C2097A9F08091E80085FD6D
:1037F00022C08091E8008B778093E80001151105C5
:10380000A1F0F80180819181A80EB91EB182A08239
:1038100085E0F82E8F2DDF91CF911F910F91FF90B2
:10382000DF90CF90BF90AF9008950E94351D882300
:10383000D1F2F82EEFCF8091F100F60181936F0164
:103840002197FFEFAF1ABF0ACECFFC018091DE01B6
:103850009091DF0186179707A0F06115710529F493
:103860009091E8009E779093E80090E061157105D3
:1038700051F4911108C08091E80082FF34C080E0CB
:103880000895BC01F2CF8091D7018823C1F1853022
:10389000C1F18091E80083FD30C08091E80082FD95
:1038A000EACF8091E80080FFE1CF8091F300209182
:1038B000F200382F6115710519F02830310558F0E4
:1038C00091E02830310509F090E02091E8002E7752
:1038D0002093E800CBCF81918093F1006150710972
:1038E0002F5F3F4FE7CF8091D701882341F085308C
:1038F00041F08091E80083FFBECF81E0089582E02F
:10390000089583E00895FC018091DE019091DF012C
:1039100086179707A0F06115710529F48091E800DA
:103920008E778093E80090E06115710551F4911154
:1039300008C08091E80082FF35C080E00895BC0196
:10394000F2CF8091D7018823C9F18530C9F18091E8
:10395000E80083FD31C08091E80082FDEACF8091CC
:10396000E80080FFE1CF8091F3002091F200382F32
:103970006115710519F02830310558F091E02830B3
:10398000310509F090E08091E8008E778093E8009F
:10399000CBCF84918093F1003196615071092F5FF4
:1039A0003F4FE6CF8091D701882341F0853041F029
:1039B0008091E80083FFBDCF81E0089582E0089503
:1039C00083E00895982F973028F08F708093E90056
:1039D00081E008959093E900242F762F50E0981706
:1039E00031F07091EC002091ED005091F00021FD3C
:1039F00002C09F5FE8CF3091EB003E7F3093EB0039
:103A00003091ED003D7F3093ED003091EB0031605F
:103A10003093EB007093EC002093ED005093F00096
:103A20002091EE0027FDE5CF80E008958091D80138
:103A300087FF13C08091E80082FF06C08091E800F4
:103A40008B778093E80004C08091D7018111F2CF79
:103A500008958091D7018823D9F38091E80080FFF1
:103A6000F8CF8091E8008E77ECCF2091E400309180
:103A7000E50095E6A9012091EC00822F817020FFDE
:103A800006C08091E80080FF06C080E00895209184
:103A9000E80022FD1AC08091D701882389F0853083
:103AA00089F08091EB0085FD0FC02091E4003091FA
:103AB000E50042175307F9F29150E1F684E00895CA
:103AC00082E0089583E0089581E008950E94D41D66
:103AD0000E94DC1DE0EEF0E0808181608083E8EDF3
:103AE000F0E080818F77808319BCA7EDB0E08C91E6
:103AF0008E7F8C9380818F7E80831092D601089573
:103B00000F931F93CF93DF930E94D41D0E94DC1D5F
:103B1000C8EDD0E088818F7788838881806888832A
:103B200088818F7D888319BC1092D7011092D301B0
:103B30001092D5011092D40100EE10E0F8018081BE
:103B40008B7F808388818160888342E060E080E0B1
:103B50000E94E21CE1EEF0E080818E7F8083E2EE45
:103B6000F0E0808181608083808188608083F801BB
:103B700080818E7F8083888180618883DF91CF916F
:103B80001F910F910895E8EDF0E080818F7E808392
:103B9000E7EDF0E080818160808384E082BF81E096
:103BA0008093D6010C94801DE8EDF0E080818E7F3B
:103BB00080831092E20008951092DA001092E100E2
:103BC00008951F920F920FB60F9211242F933F93D7
:103BD0004F935F936F937F938F939F93AF93BF9315
:103BE000EF93FF938091E10082FF0BC08091E20090
:103BF00082FF07C08091E1008B7F8093E1000E94EB
:103C00004B208091DA0080FF19C08091D80080FF9E
:103C100015C08091DA008E7F8093DA008091D90000
:103C200080FF96C080E189BD82E189BD09B400FEB4
:103C3000FDCF81E08093D7010E94C2198091E100FD
:103C400080FF19C08091E20080FF15C08091E200E2
:103C50008E7F8093E2008091E20080618093E20099
:103C60008091D80080628093D80019BC85E0809351
:103C7000D7010E94D4198091E10084FF2BC080916C
:103C8000E20084FF27C080E189BD82E189BD89B55A
:103C9000982F917080FFFBCF8091D8008F7D80930B
:103CA000D8008091E1008F7E8093E1008091E20056
:103CB0008F7E8093E2008091E20081608093E20039
:103CC0008091D301882309F449C084E08093D7010F
:103CD0000E94D5198091E10083FF29C08091E20004
:103CE00083FF25C08091E100877F8093E10082E01F
:103CF0008093D7011092D3018091E1008E7F809351
:103D0000E1008091E2008E7F8093E2008091E200EA
:103D100080618093E20042E060E080E00E94E21C6B
:103D20008091F00088608093F0000E94D319FF9189
:103D3000EF91BF91AF919F918F917F916F915F9123
:103D40004F913F912F910F900FBE0F901F9018959C
:103D500019BC1092D7010E94D01970CF8091E30056
:103D600087FD93E09093D701B3CF1F920F920FB6C8
:103D70000F9211242F933F934F935F936F937F93F1
:103D80008F939F93AF93BF93CF93DF93EF93FF9363
:103D9000D091E900DF708091EC00C82FC17080FDE8
:103DA000C0E81092E9008091F000877F8093F000D6
:103DB00078940E94F91E1092E9008091F0008860CA
:103DC0008093F000CD2BCF70C093E900FF91EF916D
:103DD000DF91CF91BF91AF919F918F917F916F9123
:103DE0005F914F913F912F910F900FBE0F901F90B9
:103DF00018951F93CF93DF93CDB7DEB7AA970FB671
:103E0000F894DEBF0FBECDBF88ED91E02091F100A8
:103E1000FC012193CF01F1E0803E9F07B9F70E949A
:103E2000E6198091E80083FF1EC18091D80190912E
:103E3000D9019A3008F017C1E92FF0E0EB51FF4D9E
:103E40000C946720803899F0823809F00CC1809179
:103E5000DC018F70873008F006C18093E900809103
:103E6000EB0085FB882780F91092E90006C080915D
:103E7000D4019091D501911182609091E800977FD3
:103E80009093E8008093F1001092F1008091E80097
:103E90008E77E5C0882309F4D3C0823009F0E3C0EF
:103EA0008091DA018111D6C08091DC018F702FEFF3
:103EB000280F263008F0D7C08093E9002091EB004E
:103EC00020FFC8C0933031F48091EB008062809372
:103ED000EB00C0C09091EB0090619093EB0021E06B
:103EE00030E001C0220F8A95EAF72093EA00109291
:103EF000EA008091EB008860EACF8111B4C0109194
:103F0000DA011F778091E3008078812B8093E300B2
:103F10008091E800877F8093E8000E94161D8091C1
:103F2000E80080FFFCCF8091E30080688093E3008D
:103F300082E0111183E08093D70195C080588230D0
:103F400008F091C08091DA019091DB018C3D23E073
:103F50009207A1F583E08A838AE289834FB7F894B8
:103F6000DE01139620E03EE051E2E32FF0E05093B3
:103F70005700E49120FF03C0E295EF703F5FEF70C0
:103F80008E2F90E0EA30C0F0C7968D939D932F5FFF
:103F9000243159F74FBF8091E800877F8093E80074
:103FA0006AE270E0CE0101960E94251C8091E80033
:103FB0008B778093E80057C0C096E7CF6091DC0113
:103FC0007091DD01AE014F5F5F4F0E940E1BBC017F
:103FD000892B09F448C09091E800977F9093E800FE
:103FE00089819A810E94831CE1CF8038E1F580911C
:103FF000E800877F8093E8008091D3018093F100EF
:1040000045CF811130C09091DA01923060F58091F6
:10401000E800877F8093E8009093D3010E94161DEB
:104020008091D301882311F084E005C08091E300E2
:1040300087FDFACF81E08093D7010E94D71913C082
:104040008091DA01813079F481E0933009F080E0E9
:104050008093D5011092E9008091E800877F8093DA
:10406000E8000E94161D8091E80083FF0AC080913D
:10407000E800877F8093E8008091EB008062809366
:10408000EB00AA960FB6F894DEBF0FBECDBFDF914E
:10409000CF911F9108950895CF938091D7018823E0
:1040A000A1F0C091E900CF709091EC00892F817050
:1040B00090FD80E8C82B1092E9008091E80083FD14
:1040C0000E94F91ECF70C093E900CF910895EE0FC2
:1040D000FF1F0590F491E02D099469279627692721
:1040E0007827872778270895F999FECF92BD81BD5B
:1040F000F89A992780B50895A8E1B0E042E050E031
:104100000C94A820262FF999FECF92BD81BDF89A74
:10411000019700B4021639F01FBA20BD0FB6F8940B
:10412000FA9AF99A0FBE08950396272F0E948320CA
:104130000E948220252F0E948320242F0C9483200C
:104140000196272F0E9483200C948220DC01CB0152
:10415000FC01F999FECF06C0F2BDE1BDF89A319697
:1041600000B40D9241505040B8F70895F894FFCF35
:10417000EC07F90720082C083708420845084508CD
:1041800045088E08910848084C08540861086E08D4
:104190007108740881086C0F6C0FC40FC40F990F5D
:1041A000990F990F990F1610A210B110B1106F113D
:1041B0006F11781178117A117811781178116F11C7
:1041C0006F117F11781178117F11221F4A1F332040
:0E41D0004A1F33207D1F9E1F3320F51F012044
:1041DE00012901002A01042A01A40165196A19683E
:1041EE00196919971901F4F5F6F73133946697C6E4
:0441FE0000000000BD
:00000001FF
