:100000000C94C8040C940F050C940F050C946B14FD
:100010000C940F050C940F050C940F050C940F0510
:100020000C940F050C940F050C9471250C94452627
:100030000C9431200C940F050C940F050C940F05B3
:100040000C940F050C940F050C940F050C940F05E0
:100050000C940F050C9488200C940F050C940F053C
:100060000C940F050C940F050C940F050C940F05C0
:100070000C940F050C940F050C940F050C940F05B0
:100080000C940F050C940F050C940F050C940F05A0
:100090000C940F050C940F050C940F050C940F0590
:1000A0000C940F050C940F050C940F05808182832E
:1000B0008485868788898A8B8C8D8E8F9091929388
:1000C00094A0A1A2A3A4A5A6A7A8A9AAABACADAED3
:1000D000AFB0B1B2B3B4C0C1C2C3C4C5C6C7C8C94A
:1000E000CACBCCCDCECFD0D1D2D3D4004C617965A0
:1000F000723A20556E646566696E6564004C61797C
:1001000065723A2041646A757374004C6179657256
:100110003A204C6F776572004C617965723A2052D3
:1001200061697365004C617965723A204465666166
:10013000756C7400290014001A00080015001700DF
:100140002B0004001600070009000A00E1001D0052
:100150001B00060019000500000000004C649168B7
:100160002C422A612D00130012000C0018001C0004
:10017000340033000F000E000D000B00E5003800C6
:100180003700360010001100000000004C64906839
:1001900028412A610100310023021E02240231029B
:1001A000260220022102340234003502010001003F
:1001B000010001002F022F000000000001000100DB
:1001C000010001002D00220225022E022E001F0236
:1001D000270235004F00520051005000010001007D
:1001E000010001003002300000000000005C01004E
:1001F000010001003A003B003C003D003E003F0092
:1002000001001E001F0020002100220040004100CC
:10021000420043004400450000000000005C010073
:10022000010001002D00220225022E022E000100F5
:1002300001002700260025002400230001003800CB
:10024000370036000100010000000000010001003D
:100250000100010001000100010001000100010096
:100260000100010001000100010001000100010086
:100270000100010001000100000000000100010078
:100280000100010001000100010001000100010066
:100290000100010001000100010001000100010056
:1002A0000100010001000100000000000100010048
:1002B0000100010000000000000000002A2B2800BF
:1002C0000000000000000000000000000000002905
:1002D000000000002C1E3420212224342627252E45
:1002E000362D3738271E1F2021222324252633337D
:1002F000362E37381F0405060708090A0B0C0D0EA9
:100300000F101112131415161718191A1B1C1D2F74
:100310003130232D350405060708090A0B0C0D0E94
:100320000F101112131415161718191A1B1C1D2F54
:100330003130354C000000000000000000000000DB
:1003400000000000000000007E0F00D4FFFFFFC788
:100350000000007800AE00AF00DA0281FFD9F1DBC7
:1003600020A4A62EAF00A0C000A1C800AED580A8D2
:100370001FD300408D1420000000000000003E5BF1
:100380004F5B3E003E6B4F6B3E001C3E7C3E1C00B4
:10039000183C7E3C18001C577D571C001C5E7F5E7D
:1003A0001C0000183C180000FFE7C3E7FF0000181E
:1003B00024180000FFE7DBE7FF0030483A060E0094
:1003C000262979292600407F05050700407F05255D
:1003D0003F005A3CE73C5A007F3E1C1C0800081CAA
:1003E0001C3E7F0014227F2214005F5F005F5F00CD
:1003F00006097F017F00006689956A006060606081
:10040000600094A2FFA2940008047E04080010205B
:100410007E20100008082A1C0800081C2A08080072
:100420001E10101010000C1E0C1E0C0030383E3830
:100430003000060E3E0E0600000000000000000026
:100440005F000000000700070000147F147F140005
:10045000242A7F2A1200231308646200364956209A
:100460005000000807030000001C2241000000416A
:10047000221C00002A1C7F1C2A0008083E080800D5
:100480000080703000000808080808000000606064
:1004900000002010080402003E5149453E00004281
:1004A0007F4000007249494946002141494D3300CF
:1004B0001814127F10002745454539003C4A494928
:1004C00031004121110907003649494936004649A2
:1004D00049291E0000001400000000403400000004
:1004E00000081422410014141414140000412214B2
:1004F00008000201590906003E415D594E007C1278
:1005000011127C007F49494936003E414141220099
:100510007F4141413E007F49494941007F09090926
:1005200001003E41415173007F0808087F000041EF
:100530007F4100002040413F01007F08142241001C
:100540007F40404040007F021C027F007F04081073
:100550007F003E4141413E007F09090906003E41BE
:1005600051215E007F091929460026494949320078
:1005700003017F0103003F4040403F001F20402017
:100580001F003F4038403F00631408146300030419
:10059000780403006159494D4300007F4141410007
:1005A000020408102000004141417F0004020102C2
:1005B0000400404040404000000307080000205471
:1005C000547840007F28444438003844444428008C
:1005D000384444287F0038545454180000087E09D9
:1005E00002001824241C78007F08040478000044CA
:1005F0007D4000002040403D00007F102844000066
:1006000000417F4000007C04780478007C080404EA
:1006100078003844444438007C18242418001824F6
:1006200024187C007C080404080048545454240016
:1006300004043F4424003C4040207C001C20402017
:100640001C003C4030403C004428102844004C90A2
:1006500090907C004464544C4400000836410000F3
:10066000000077000000004136080000020102048B
:1006700002003C2623263C00000000000000000091
:1006800000000000000000000000008080808080EA
:1006900080000000000000FCFCFCFC0000000000EA
:1006A00000008080808080800000000000808080CA
:1006B00080000000008080808000000000008080BA
:1006C0008080000000000080C0F0F8F8F8F8F80022
:1006D0000000000000000080E0F8F8F8F8F80000E2
:1006E000000000000000000000000000000000000A
:1006F000000000000000E0F0F0F0E0ECEEF7F37036
:1007000020007C7C7C7E007E7E7E7F7F7F00008060
:10071000C0E07E5B4F5BFEC00000C000DCD7DEDEC9
:10072000DED7DC00C0000000000000000000000078
:1007300000000000000000000000000000000000B9
:1007400000000000000000F8FCFEFF1F070707077D
:100750001F1F1F1E180000FFFFFFFF000000009E6C
:10076000DFDFCFC7E7E7E7FFFFFFFE0000033FFF44
:10077000FFFEC000F0FFFF1FFFFFF000C0FCFFFF07
:100780003F0300C0F0F8FE9F878380FFFFFFFF80DC
:10079000800000E0F8FCBF8F8381FFFFFFFF8080B7
:1007A00080000000000000000000000000000000C9
:1007B0000000000000000F1F3F7F7F7F7F7F3F1EF4
:1007C0000C001F1F1F3F003F3F3F7F7F7F00307B9C
:1007D0007F7830202030787F3B0003000F7F0F0FA1
:1007E0000F7F0F0003000000000000000000000069
:1007F00000000000000000000000000000000000F9
:1008000000000000000000071F3F7F7C78707078B8
:100810007E3E3E0E0600007F7F7F7F0000001F3F70
:100820007F7F79717030383F7F7F7F6000000001EB
:100830001F7F7F7E7F1F0100013F7F7E7F7F0F0133
:1008400000000003030303030303037F7F7F7F0391
:10085000030000030303030303037F7F7F7F07037A
:100860000300000000000000000000000000000085
:100870000000000000000000000000000000000078
:100880000000000000000000000000000000000068
:100890000000000000000000000000000000000058
:1008A0000000000000000000000000000000000048
:1008B00000000000000000000E0363006C006100F7
:1008C00077003400340000000C03790066007500E6
:1008D0006B007500000004030904090242000201D4
:1008E00000A0FA090400000103010100092111011F
:1008F00000012240000705810308000A09040100E5
:100900000203000000092111010001222200070555
:1009100082032000010705030320000112011001DA
:1009200000000008465901000100010200010660B4
:10093000FF0961A1010962150026FF0095207508D5
:1009400081020963150026FF00952075089102C0F9
:1009500005010906A101050719E029E71500250190
:100960009508750181029501750881010507190037
:1009700029FF150026FF0095067508810005081956
:10098000012905950575019102950175039101C035
:1009900011241FBECFEFDAE0DEBFCDBF04B603FEE9
:1009A00027C080919E0490919F04A091A004B091D3
:1009B000A1048730904BA740B04BD1F410929E0415
:1009C00010929F041092A0041092A10414BE84B748
:1009D000877F84BF0FB6F894A895809160008861E6
:1009E00080936000109260000FBEE0E0F8E309958C
:1009F00011E0A0E0B1E0E6E1F7E502C005900D925C
:100A0000A038B107D9F724E0A0E8B1E001C01D92F9
:100A1000AE39B207E1F70E942D220C94522B0C94B0
:100A200000006091520270915302809154029091A3
:100A300055020E948C1E813079F0882341F082306B
:100A400079F0833089F060E08CEE90E003C060E0E4
:100A500085E291E00C94600F60E088E191E0FACFCC
:100A600060E08BE091E0F6CF60E08DEF90E0F2CFB8
:100A700060E08CEA90E00C944E0FCF93C0E28C3390
:100A8000910520F4FC01E25DFE4FC0811F92CF93DF
:100A90009F938F93FB0180811F928F9381811F927F
:100AA0008F938DE191E09F938F931F9288E18F93B5
:100AB00087E991E09F938F930E943A288DB79EB764
:100AC0000E960FB6F8949EBF0FBE8DBF8091800129
:100AD00090918101449761F41092810110928001FC
:100AE000E2E8F1E080E2819391E0E639F907D9F795
:100AF0008091800190918101FC01EE57FE4FC083EF
:100B000001969093810180938001CF9108950E9476
:100B1000710A882361F00E94110560E087E991E085
:100B20000E94490F60E082E891E00C94490F0C9418
:100B30003805FB01228121110E943D0581E00895C5
:100B4000CF93C82F0E94710A811101C0C2E08C2F7F
:100B5000CF91089581E008950C94990508950C941F
:100B6000AE051F93CF93DF9300D000D00F92CDB787
:100B7000DEB749835A836B833091FB0189819A8167
:100B800031111DC06623B9F02223A9F00E94551D22
:100B9000182F682F89819A810E94FE1C69817A81B1
:100BA000812F0F900F900F900F900F90DF91CF91AA
:100BB0001F910C94F40C0E942C1D182FEFCF0E9453
:100BC000551D69817A81EDCFFC01262F408151812D
:100BD0006281738184810C94B105CF93DF93EC0122
:100BE00060E00E94E405BE01DF91CF910C94AF0557
:100BF000FF920F931F93CF93DF93E82FF0E0EC5415
:100C0000FD4FF490C82FC695C695C695D0E0FE015D
:100C1000EC5BFC4F0491877010E0082E02C0159524
:100C200007950A94E2F701701127CC5CDC4FFE01B6
:100C3000C491D0E002C0D595C7958A95E2F7C170FE
:100C4000DD270115110519F081EE0E944916209744
:100C500019F086EE0E9449168F2D0E949C16CD2B0E
:100C600019F086EE0E947416012B41F081EEDF919F
:100C7000CF911F910F91FF900C947416DF91CF913B
:100C80001F910F91FF900895EF92FF920F931F9382
:100C9000CF93DF93EC01162F0AE08881882309F4B3
:100CA00054C0813009F04EC08981813099F47E01B1
:100CB00022E0E20EF11C8A810E949C16E701219637
:100CC000812F815050F3EFE9FFE03197F1F700C039
:100CD0000000F7CF823041F47E0182E0E80EF11C83
:100CE0008A810E944916EACF833041F47E01E2E016
:100CF000EE0EF11C8A810E947416E0CF843011F050
:100D00002196DDCF2A81229690E080E0AE014F5FF0
:100D10005F4F2053330B2A30310548F0019778F2AA
:100D2000EFE9FFE03197F1F700C00000F7CF089F2F
:100D3000B001099F700D1124C901860F971F2981E9
:100D4000EA01E4CF0E94F805BACFDF91CF911F915D
:100D50000F91FF90EF90089560E00C9444068F92FD
:100D60009F92AF92BF92CF92DF92EF92FF920F933A
:100D70001F936B017C0181E090E0A0E0B0E04C01AA
:100D80005D0104C0880C991CAA1CBB1C4A95D2F7B3
:100D9000B501A4014C015D0104C0880C991CAA1C7A
:100DA000BB1C2A95D2F7482959296A297B2904C0F6
:100DB000880F991FAA1FBB1F0A95D2F78A019B01B2
:100DC0000C211D212E213F21041715072607370767
:100DD00089F48C299D29AE29BF29BC01CD011F9121
:100DE0000F91FF90EF90DF90CF90BF90AF909F90CA
:100DF0008F90089580959095A095B0958C219D2118
:100E0000AE21BF21EACF0F93382F262F60915202D7
:100E1000709153028091540290915502042F432FF8
:100E20000E94AF060F910C943C1C0E94BF200E94B0
:100E3000DF1E811102C00E94831F0C9430090C94A4
:100E4000330908950E94EB180E9421072FEF84E3D5
:100E50009CE0215080409040E1F700C000000C94DD
:100E6000AC200F931F93CF93DF93EC0161E00E94BE
:100E7000E4058C01BE010E942B0B882359F1BE01B1
:100E8000C8010E94AC05882329F1BE01C8010E9457
:100E900033118823F9F0BE01C8010E94851188230F
:100EA000C9F0BE01C8010E94A812882399F08A8166
:100EB000882339F001158CE5180751F00F3D1C45CA
:100EC00079F0CE01DF91CF911F910F910C94AA057B
:100ED0000E94220780E0DF91CF911F910F9108952A
:100EE0000E94831FF7CF08950C94730781E0089543
:100EF0000C947607CF93C82F0E9474078C2FCF9144
:100F00000C947807CF93DF930E94F40C0E9455084D
:100F1000EC01811523E5920790F5811532E59307E1
:100F200008F096C081159042C8F4C11581E0D80739
:100F300088F4C53AD10548F4C430D10558F4C1301D
:100F4000D10541F0D0E0C0E005C0CE01805E91093E
:100F50000897C0F7CE01DF91CF910895C11591E5B3
:100F6000D90708F070C0C11520E5D20708F04EC0BF
:100F7000C11530E4D30730F3DF70D06AEBCF8115B1
:100F800046E59407F0F4C11585E5D80708F075C06B
:100F9000C11594E5D90708F06BC0CE01837099277D
:100FA00021E030E002C0220F331F8A95E2F7C69598
:100FB000C69590E2C99FE0011124C22BD32BDA68B9
:100FC000C9CF81152AE5920778F4811539E5930791
:100FD00008F05EC0811548E5940708F4B3CFD82F18
:100FE000CC27C06FD06AB6CF90568115904208F0DA
:100FF000A9CF8D2F8F710E94EC0890E0982F882741
:1010000088279F719C012C2BE90140C0CE01E4E0B0
:1010100096958795EA95E1F783702C2F269526956E
:10102000237040E2249F90011124382B8C2F837071
:10103000C1E0D0E002C0CC0FDD1F8A95E2F7C22BE1
:10104000D32BDC6887CFDC2FCC27C16FD06A82CF4F
:101050008370992721E030E002C0220F331F8A9568
:10106000E2F7C695C69580E2C89FE0011124E7CF5C
:10107000DC2FCC27C46FD06A6DCF8C2F0E94EC0878
:10108000C82FD0E0DC2FCC27CC27DF71D06262CF15
:101090008F700E94EC0834E0D695C7953A95E1F739
:1010A000CF709C2FEC01D06955CF82389105B1F1FA
:1010B000B0F48133910509F475C048F48932910583
:1010C00009F469C08A32910509F473C00895853323
:1010D000910509F459C08933910501F10895833EC2
:1010E0009105A9F138F4803E9105F9F0823E910511
:1010F00049F10895863E9105A9F1873E9105C9F110
:10110000843E910519F52091900421FF1FC0809124
:101110008F0484FD14C087EE90E0089520918F0421
:101120002370A1F080EE90E0089520918F0420FDBF
:1011300047C03091900430FF09C024FF44C090E0C4
:1011400080E004C020918F0422FDF7CF0895209104
:101150008F0422FD3BC03091900430FDE3CF24FF8B
:10116000F5CFEDCF20918F0423FFF0CF24FDE7CF03
:10117000D2CF20918F0423FD2CC03091900431FFF9
:10118000EECF84EE90E0089520918F0425FFDECF0E
:1011900089E290E0089520918F0425FFD7CF85E361
:1011A00090E0089520918F0426FFD0CF8AE290E04E
:1011B000089520918F0426FFC9CF81E390E0089520
:1011C00089E390E0089583EE90E0089582EE90E048
:1011D000089586EE90E0089590918F0492FF06C0E6
:1011E000282F28712830F9F4877F846093FF06C088
:1011F000282F28712831F1F4877E84612091900492
:1012000020FF06C0382F38713830D9F4877F8160CD
:1012100021FF06C0282F28712831D1F4877E8161F3
:1012200094FD877E0895282F24712430F9F68B7F52
:101230008860DCCF282F2471243101F78B7E8861F0
:10124000DDCF382F3171313019F78E7F8860E0CFD4
:10125000282F2171213121F78E7E8861E1CF0895F9
:101260000C942F0908950C943209E82FF0E0E5580A
:10127000FD4F80810895089580EA8A95F1F70895D9
:10128000F894E82FE295EF70F0E031A1282F2F704D
:1012900081E090E001C0880F2A95EAF7982F909599
:1012A000932391A392A1892B82A378940895089502
:1012B0000E948F0A809100018091000194E08111C9
:1012C00090E09093840284E0891B8093830284E9F8
:1012D0000E94400986E60E94400987E90E94400971
:1012E00086EC0E94400984EF0E94400985EF0E942D
:1012F000400986EF0E94400987EF0E94400981E380
:101300000E94400983E30E944009E3E7F2E0ABE773
:10131000B2E08BE792E011921D928E179F07D9F7EA
:1013200084E00E943A0A0E9415070C94990A0E94D0
:10133000710A8823F1F08091830290E085589D4FD7
:101340000E94AC0A811112C08091AF018F5F80931F
:10135000AF01863048F0E0918302F0E0E558FD4FA0
:1013600010821182128213820C941F071092AF0117
:10137000FBCF8091840290E085589D4F0E94C50A62
:101380000C945709CF92DF92EF92FF920F931F9325
:10139000CF93DF93C0E7D1E003E712E0D12CEE2436
:1013A000E394F12C8991F894E82FE295EF70F0E046
:1013B00021A18F70A70102C0440F551F8A95E2F743
:1013C000CA01922F982B91A392A18095892382A381
:1013D00078940E943C09EAE6F1E030E020E0C12C7C
:1013E0004191A42FA295AF70B0E090968C9190E0BF
:1013F0004F7002C0959587954A95E2F780FD36C0FB
:101400008E2D022E01C0880F0A94EAF7C82A2F5F9A
:101410003F4F2630310521F7FE01319780810E9430
:101420004009F8018081C81619F1C08281E0D82AEC
:101430000F5F1F4FF1E0C437DF0709F0B3CF6091B2
:10144000840270E065587D4F2D2D44E083E792E0E3
:101450000E943B0A0E9497098D2DDF91CF911F9129
:101460000F91FF90EF90DF90CF90089580E0CECF66
:1014700080E0DDCF0895FF920F931F93CF93DF930A
:10148000F82E092F162FD72FC42F222349F081E0E1
:101490008093B2010E9461209093B1018093B001CA
:1014A0008091B2018823A1F08091B0019091B101A7
:1014B0000E947920069760F0EF2DF02FA12FBD2F0D
:1014C000CE0FDF2FD11DEC17FD0741F41092B201B2
:1014D000DF91CF911F910F91FF90089581918D938E
:1014E000F2CF8091B301811111C08091D800806149
:1014F0008093D8008AE18A95F1F700C09091D900D5
:10150000892F817090FF82E08093B30181E09091F8
:10151000B301913009F080E008950C94710A0E94A3
:101520008D0A809300010E94710A81110C94A00A17
:1015300008950E94710A811102C00C94A60A0895B0
:1015400061E070E081E091E00C941C1461E070E0D7
:1015500081E091E00C942314CF93DF93D82FC92F0F
:101560000E94BD14009779F4ED2FFC2FDC01AB54E1
:10157000BE4F2C912193019684309105B9F781E0FB
:10158000DF91CF91089580E0FBCF30E020E0FC01B7
:101590004191CF01F901EB54FE4F40832F5F3F4F44
:1015A00024303105A1F7089582E290E00E94D92A03
:1015B000813289F483E290E00E94D92A823059F482
:1015C00084E290E00E94D92A91E0813109F090E014
:1015D000892F8170089580E0FCCFCF93C82F6FEFE3
:1015E000811161E282E290E00E94E72A6FEFC1116F
:1015F00062E083E290E00E94E72A6FEFC11161E1AF
:1016000084E290E0CF910C94E72A80E00E94ED0AFA
:101610000C94D91E089585E290E00E94D92A682F83
:1016200070E090E080E0089585E290E00C94E72A75
:101630000E940A0B0E94D40A81110CC060E070E085
:10164000CB010E94140B0E946C0C0E94580D81E08B
:101650000C94ED0A0895CF93FB01C281CC2309F1CC
:101660009C0122513F452031310520F582510E94D5
:10167000680DC0E08C2FCF91089581E00E94621C1C
:1016800043E062E081E00E940307F3CF81E00E9423
:10169000831C43E062E081E00E940307EBCF82E01D
:1016A000F6CF8031FFE59F0789F381319F45B9F37C
:1016B000C1E0E0CF8031EFE59E07F9F281319F452F
:1016C000C9F682E0DBCF2FEFFC0120830895EF9273
:1016D000FF920F931F93CF93DF93EC01062FE881C6
:1016E000E150E33108F05EC0F0E0EC5AF44D0C94A8
:1016F0001728198289E08A83602FCE01DF91CF916C
:101700001F910F91FF90EF900C94282189818230D6
:1017100069F0833071F08130D9F40E946D200E940D
:101720001D286A837B838C839D83E6CF0E940B0BED
:10173000F6CF7E0122E0E20EF11C10E0812F0E9424
:101740003509F70181937F011F5F1830B9F7D4CFB6
:10175000602FCE010E94630BCFCF89818230C1F709
:101760006A817B818C819D810E941D280E94140BBF
:10177000C3CF4B816A8189810E943E0C98278927BB
:1017800098279D838C83B8CF2C813D8132272327D6
:1017900032274B816A8189810E94570CADCF0E940C
:1017A0006C0CAACF8FEF8883A7CF0E94010D89838D
:1017B000A3CF0E94030D9827892798279A838983AE
:1017C0009BCF6B8170E089819A81AE014C5F5F4F46
:1017D0009827892798270E94060D8ECF6B8170E08D
:1017E00089819A81AE014C5F5F4F9827892798279E
:1017F0000E942D0D81CF0E94580D7ECF0E942C0C8F
:10180000D6CF6B8170E089819A81AE014C5F5F4FCA
:101810009827892798270E94A40C6ECF6B8170E0CF
:1018200089819A81AE014C5F5F4F9827892798275D
:101830000E94CA0C61CF0E94050B5ECF0E94282136
:10184000FFEF21EE84E0F15020408040E1F700C03E
:1018500000000E94AC2050CF84E0089550E0440F77
:10186000551F9CE0699F400D511D112490E6899FF2
:10187000400D511D1124CA01869608950F931F93A0
:10188000CF93DF930E942E0C8C010E94D92AC82F7F
:10189000D0E0DC2FCC27C80101960E94D92A9E01F6
:1018A000282BC901DF91CF911F910F9108950F93BC
:1018B0001F93CF93DF93122F032F0E942E0CEC0166
:1018C000602F0E94E72A612FCE010196DF91CF9110
:1018D0001F910F910C94E72AAF92BF92CF92DF92A3
:1018E000EF92FF921F93CF93DF9384E3C82E81E0A2
:1018F000D82ED0E07601C0E014C0F50125913491D6
:10190000412F6C2F8D2F0E94570C82E0A80EB11C26
:101910001F5F163091F78CE0E80EF11CCF5FC830E6
:1019200019F0570110E0E9CFDF5F80E6C80ED11C47
:10193000D43001F7DF91CF911F91FF90EF90DF90AE
:10194000CF90BF90AF900895EF92FF920F931F93A7
:10195000CF93DF93EC018A017C01E60EF71ECE01E6
:101960008696CE15DF0539F4DF91CF911F910F9147
:10197000FF90EF900895C03821E0D20740F40E9414
:10198000D92AF80180830F5F1F4F2196E8CFF80115
:101990001082F9CFCF92DF92EF92FF920F931F93B5
:1019A000CF93DF937C016A018C01060F171FEC01B6
:1019B000CE018696C017D10749F4DF91CF911F91D0
:1019C0000F91FF90EF90DF90CF900895C03821E005
:1019D000D20740F4FE01EE19FF09EC0DFD1D6081F8
:1019E0000E94E72A2196E4CF462F843038F47830DD
:1019F00028F4663018F4672F0C943E0C90E080E0D9
:101A0000089580E108958AE592E00895EF92FF92AB
:101A10000F931F93CF93DF93EC018A017C01E60EB5
:101A2000F71ECE018A559E4FCE15DF0539F4DF91A2
:101A3000CF911F910F91FF90EF900895CA3522E04A
:101A4000D20740F40E94D92AF80180830F5F1F4F0C
:101A50002196E7CFF8011082F9CFCF92DF92EF9273
:101A6000FF920F931F93CF93DF937C016A018C0148
:101A7000060F171FEC01CE018A559E4FC017D107E4
:101A800049F4DF91CF911F910F91FF90EF90DF907C
:101A9000CF900895CA3522E0D20740F4FE01EE1936
:101AA000FF09EC0DFD1D60810E94E72A2196E3CF1E
:101AB000CF93DF93C6EAD1E060E0CE010E94E72A2F
:101AC0002196C11584E0D807B9F7DF91CF91089529
:101AD000DF92EF92FF920F931F93CF93DF9300D08B
:101AE00000D0CDB7DEB7F82E8FE08F1540F08FEF26
:101AF00093E00E94D92A06EA11E08823C1F00F90F2
:101B00000F900F900F90DF91CF911F910F91FF9049
:101B1000EF90DF900895011584E0180781F3C80164
:101B20000E94D92A811101C0FA940F5F1F4FF11052
:101B3000F2CF19821A821B821C82DD24D394780191
:101B40008FEFE81AF80AC8010E94D92A89831A82FD
:101B50008823A9F29FEF980F933078F48A83D98273
:101B60000E5F1F4FC7010E94D92A8B83882339F249
:101B7000CE0101960E94AC06E2CF8701F9CFCF9249
:101B8000DF92EF92FF920F931F93CF93DF936C013D
:101B90007B0164E670E088E70E94D812EC0197FDB3
:101BA00012C010E000E0F601E00FF11F849164E63E
:101BB00070E00E943413EC01892B29F40F5F1F4F52
:101BC0000E151F0581F70E94B713CE01DF91CF914B
:101BD0001F910F91FF90EF90DF90CF900895E5E86F
:101BE000F2E080E092E0DF019C011D922150304044
:101BF000E1F7F0938A04E09389048FEF9FEF9093CD
:101C0000E5018093E40108950E94A0058093E0011E
:101C100080FD0FC080E88093DF010E94D2126DE04A
:101C200070E08BE693E00E94BF0D892B21F080E0ED
:101C3000089580E2F0CF8091E00163E070E081FDE3
:101C400026C088E693E00E94BF0D892B81F76DE0E6
:101C500070E088E593E00E94BF0D892B41F70E9458
:101C60006D20605A75418F4F9F4F6093850470932C
:101C7000860480938704909388040E94EF0D81E08E
:101C80008093E3018093E2011092E101089585E6DB
:101C900093E0D9CF2091DF0136E0839FC00111246A
:101CA000629F800D911D1124811522E0920714F08E
:101CB00090E080E08B579D4F90938A048093890435
:101CC00008952091890430918A042F573240409121
:101CD000DF01642F70E0C9010E940328481B4630D1
:101CE00010F4240F311D211582E0380710F030E088
:101CF00020E02B573D4F30938A04209389040895A8
:101D00001F93CF93DF93162F8A3031F481E0DF9158
:101D1000CF911F910C94FA0E8D3011F480E0F7CF23
:101D2000C0918904D0918A0496E0FE01A9EBB1E04C
:101D300001900D929A95E1F7803EC8F086E0FE0191
:101D400011928A95E9F711111EC0C0918904D091B2
:101D50008A0446E050E0BE0189EB91E00E942D2804
:101D6000892BF9F4DF91CF911F910C94610EF6E06D
:101D70008F9FB001112468587C4F46E050E0CE019F
:101D80000E942428E0CFE0918904F0918A049F0109
:101D90002A5F3F4F2E173F07C1F2808180958193C4
:101DA000F9CFC558D240CE0125E0969587952A9562
:101DB000E1F721E030E0A90102C0440F551F8A95E8
:101DC000E2F7CA014091E4015091E501842B952B83
:101DD000259645E0D695C7954A95E1F702C0220FB2
:101DE000331FCA95E2F7822B932B9093E5018093E2
:101DF000E401B8CFCF93382FE0918904F0918A04A1
:101E0000E558F2402091DF01622F70E0CF010E947F
:101E10000328281B822F332369F066E00E94F727EE
:101E2000C82FC15010F4CF91089560E080E20E9465
:101E3000800EF7CF9F01280F311D2115324018F079
:101E400080E0F0E0E0E08E0F9F2F911D8B579D4FBB
:101E500090938A0480938904E6CFFF920F931F9397
:101E6000CF93DF93EC01F62EFC0101900020E9F7FF
:101E70008F0101501109C017D10730F0DF91CF91C8
:101E80001F910F91FF9008956F2D89910E94800EF0
:101E9000F2CF0E942D0F81E00C94FA0E1F93CF9386
:101EA000DF93EC01162FFE018491811104C0DF91B4
:101EB000CF911F910895612F0E94800E2196F3CF3C
:101EC0000E944E0F81E00C94FA0E8091E301811183
:101ED00003C08091E20108950E946D20605A75410F
:101EE0008F4F9F4F6093850470938604809387047F
:101EF000909388048091E2018111EBCF62E070E061
:101F000086E593E00E94BF0D892B19F781E080934D
:101F1000E201DFCF2F923F925F926F927F928F927A
:101F20009F92AF92BF92CF92DF92EF92FF920F9368
:101F30001F93CF93DF938091E301882369F0209171
:101F4000E4013091E5012115310531F08091E10185
:101F500061E070E0882399F0DF91CF911F910F919C
:101F6000FF90EF90DF90CF90BF90AF909F908F90B9
:101F70007F906F905F903F902F9008958F5F082F14
:101F800010E01B01082E02C0220C331C0A94E2F759
:101F9000A90142215321452B89F39091E00190FD45
:101FA00044C08295880F807680930B019801369506
:101FB00027953695279520930E01815E80930C011D
:101FC00010920F0124E630E047E050E069E071E054
:101FD00088E70E946313892B09F0BECFA80125E092
:101FE000440F551F2A95E1F78091E00180FD2BC039
:101FF0004B575D4F04E610E020E230E060E488E7F4
:102000000E948A13892B09F0A7CF0E94650FE10176
:10201000C095D0958091E4019091E501C823D92322
:10202000D093E501C093E40197CF880F880F880F04
:1020300080930B0110920E01895F80930C0183E065
:1020400080930F01BFCFEFEBF1E080E2DF011D9243
:102050008A95E9F7ACE7B1E008E711E080E8C82E1F
:1020600081E0D82E97E0592E772473948D91E80162
:1020700029918E01240F352F311D2B573D4FE82F0D
:10208000F0E0E154FE4F90E080E0652C681A872C68
:10209000082E01C0880C0A94EAF77901A12CE70107
:1020A000B9907E01B820662D6A196770962E062EAB
:1020B000000C770BDB2D01C0DD0F9A94EAF77195C8
:1020C000619571096770772701C0B6946A95EAF740
:1020D000BD2A6081962E9B289082A39468E0A61268
:1020E000DECF019631968830910579F6CA16DB0667
:1020F00009F0BCCF04E610E020E230E04FEB51E005
:102100007DCF8091E2019091E301911103C091E0B4
:1021100089270895882369F062E070E084E593E000
:102120000E94BF0D892B19F08091E2010895109251
:10213000E2018091E201EBCF0F931F938091E301C5
:10214000882319F160E080E00E944A0E0E94870512
:102150000E948A0F8091E2018823B9F00E946D20CD
:1021600000918504109186042091870430918804A1
:10217000601B710B820B930B6F3F7F4F8F4F9F47FD
:1021800020F41F910F910C9481101F910F910895CD
:102190000F931F93CF93DF93C42FD22FFC01828123
:1021A0008823C9F04093E8010E9461209093E701E1
:1021B0008093E60180E28C0F883008F04FC0C77032
:1021C00081E001C0880FCA95EAF7DF91CF911F9196
:1021D0000F910C94AF161091E801141334C0809144
:1021E000E6019091E7010E947920892B61F5C0E218
:1021F000CD0F1D17B9F080E2810F883040F41770C1
:1022000081E001C0880F1A95EAF70E94B616C8301F
:1022100048F481E09D2F977001C0880F9A95EAF7E6
:102220000E94AF16802F0E949C16C830B8F4D77059
:1022300081E001C0880FDA95EAF7DF91CF911F9115
:102240000F910C94B61680E28C0F883038F4C7706A
:1022500081E001C0880FCA95EAF7EFCFDF91CF91F7
:102260001F910F9108950F939C01CB01243F4CE5E2
:10227000340759F1A8F4293DFCE53F0701F12A3D57
:102280004CE53407D1F1283D3C4591F406E221EEBE
:1022900041EE68ED7CE50E94C81080E00F91089542
:1022A000263FFCE53F07E9F0B0F0273F3C45F9F059
:1022B000FC018281882339F11092E801EFCF07E217
:1022C00025EE45EE69ED7CE5E6CF06E221EE40EE37
:1022D00064EF7CE5E0CF07E225EE44EE65EF7CE5B8
:1022E000DACF06E221EE42EE66EF7CE5D4CF07E2DC
:1022F00025EE46EE67EF7CE5CECF08E221E045EE25
:102300006AED7CE5C8CF81E0C9CFCF93DF93EC01C4
:10231000FB018281882309F419C1C230FCE5DF0783
:10232000C0F1C6319CE5D90730F09E012B5F3C45DA
:102330002930310570F50E94F21E9093900480932D
:102340008F04C031ECE5DE0709F4CFC008F05BC0B4
:10235000C8308CE5D80709F4B6C088F5C430ECE580
:10236000DE0709F4A8C0C0F4C2308CE5D80709F430
:102370009CC080918F048260C330DC4509F498C012
:1023800080918F04909190040E94001F0E94EB188E
:1023900080E0DF91CF91089580918F048061C630F5
:1023A000ECE5DE0709F484C080918F048860C730B3
:1023B000DC4508F47DC080918F04806279C0CC3008
:1023C0008CE5D80709F489C070F480918F048C6083
:1023D000CA30ECE5DE0709F46BC008F478C08091E0
:1023E0008F048E7F65C0CE308CE5D80709F479C0A4
:1023F00080918F048B7FCF30DC4508F459C08091E9
:102400008F048F7E55C0CC3FECE5DE0709F457C042
:1024100030F5C3318CE5D80709F46FC078F4C131C9
:10242000ECE5DE0709F465C0C231DC4509F0A8CF50
:102430000E94EB1880918F048F773AC0C5318CE5EC
:10244000D80709F462C008F476C0809190048160D6
:10245000CB3FDC4509F094CF8093900491CFC11518
:10246000FDE5DF0709F44DC088F4809190048D7F6D
:10247000CE3F9CE5D90781F3809190048E7FCF3FBA
:10248000DC4550F3809190048360E6CFC230FDE5D7
:10249000DF0709F459C008F444C080E0C330DD45CB
:1024A00009F06ECF0E94851F6BCF80918F048160F1
:1024B00080938F0465CF80918F048460F9CF8091E1
:1024C00090048260C9CF80918F048064F1CF0E9414
:1024D000EB1880918F048068EBCF80918F048D7F03
:1024E000E7CF80918F04877FE3CF80918F048F7D2A
:1024F000DFCF80918F048F7BDBCF80918F04837F30
:10250000D7CF809190048C7FA7CF80918F0482FBDE
:10251000992790F921E0922790FB82F990FB83F9AB
:10252000C7CF80919004982F909591708E7F892BC2
:1025300090FB81F991CF0E94EB1890918F04892F25
:1025400097FB87F98058B4CF81E0ACCF81E021CFF1
:10255000CF93DF93EB0186319C4511F50E94EA1D74
:102560009A81992399F08A7A91E009F490E0909306
:10257000E901811109C089E20E94C51D0E94291E3E
:1025800080E0DF91CF91089585E3F6CF8091E90156
:10259000811104C089E20E94CC1DF0CF85E3FBCFFE
:1025A00081E0EFCF1092B9008CE08093B8000895DD
:1025B000EF92FF920F931F93CF93DF93182FEB01AE
:1025C0001092BC0084EA8093BC000E9461207C01D0
:1025D0008091BC0087FF27C08091B900887F883038
:1025E00029F08091B900887F8031D9F51093BB0024
:1025F00084E88093BC000E9461208C018091BC0023
:1026000087FF24C02091B900287F90E080E0283126
:10261000B1F081E090E0203411F490E080E09195F9
:10262000819591090CC0CF3FDC0791F20E94612097
:102630008E199F098C179D0758F28EEF9FEFDF913F
:10264000CF911F910F91FF90EF900895CF3FDC073E
:10265000A9F20E946120801B910B8C179D0770F2DC
:10266000ECCF8FEF9FEFEBCF0F931F93CF93DF93C1
:10267000EB018093BB0084E88093BC000E94612042
:102680008C018091BC0087FF11C02091B900287F88
:1026900081E090E0283211F490E080E091958195FE
:1026A0009109DF91CF911F910F910895CF3FDC07E2
:1026B00041F30E946120801B910B8C179D0708F34A
:1026C0008EEF9FEFEECFCF92DF92EF92FF920F93BC
:1026D0001F93CF93DF936B018A017901B9010E94A7
:1026E000D812E6010C0D1D1DC017D10761F424E9B5
:1026F0002093BC00DF91CF911F910F91FF90EF903D
:10270000DF90CF90089597FDF2CFB70189910E9495
:102710003413EACFCF92DF92EF92FF920F931F9381
:10272000CF93DF93C62F6A017901B8010E94D812B6
:1027300097FD0CC0B8018C2F0E943413E601EC0CFD
:10274000FD1CCE15DF0511F097FF0CC024E9209386
:10275000BC00DF91CF911F910F91FF90EF90DF9020
:10276000CF900895B80189910E943413EACF84E98B
:102770008093BC0008958EE14A9B02C08150E1F72E
:102780004A9BFECF08955A9880E28A95F1F75A9AAB
:102790000895FC013BE03A95F1F798E020E080E0F5
:1027A00031E040E14A95F1F7880F4A9B02C0816011
:1027B000232742E04A95F1F7000040E14A95F1F7FE
:1027C000915079F790E19A95F1F799B132E03A9505
:1027D000F1F7000040E14A95F1F792FB992790F953
:1027E00092272081920F90830895EF92FF920F938A
:1027F0001F93CF93DF930F92CDB7DEB719828C0171
:102800007C01E60EF11C0E151F0561F481E0998133
:10281000911180E00F90DF91CF911F910F91FF9068
:10282000EF9008950E94BB13CE0101960E94C91338
:10283000F80181938F01E7CF9093EB018093EA0138
:10284000529A5A9A08959093EB018093EA01529814
:102850005A9AEA9AE9E6F0E080818F7C80830895B5
:102860006150770B91E001C0990F6A95EAF720E07B
:1028700031E0911108C0222391F05A9A80E28A95A2
:10288000F1F75A980895492F482339F05A9A232787
:1028900040E24A95F1F79695ECCF5A98F9CF5A98BD
:1028A000EDCFFF920F931F93CF93DF93EC018C0139
:1028B000060F111DC017D10731F4DF91CF911F9181
:1028C0000F91FF900895F9900E94C31368E08F2D37
:1028D0000E943014EFCF1F920F920FB60F92112467
:1028E0002F933F934F935F936F937F938F939F9318
:1028F000AF93BF93CF93DF93EF93FF935A98529A7E
:10290000C091EA01D091EB016D81662321F08E81A7
:102910009F810E9451140E94C31380E18A95F1F7B0
:102920005A9852985A9A80E18A95F1F76A816623FB
:1029300009F18B819C810E94F513E881F98188233C
:1029400011F088E001C082E080830E94BB13FF91F8
:10295000EF91DF91CF91BF91AF919F918F917F9137
:102960006F915F914F913F912F910F900FBE0F90FC
:102970001F901895E881F981E4CFCF93DF93C09140
:10298000EA01D091EB01F894529A5A9885E08A9521
:10299000F1F7000052985A9A80E28A95F1F74A9B23
:1029A0000CC0529A5A9AE881F98181E08083789428
:1029B00081E090E0DF91CF9108956D81662381F0F1
:1029C0008E819F810E94F51381110AC0529A5A9AF2
:1029D000E881F98182E08083789482E090E0EACF18
:1029E0000E94BB1380E28A95F1F75A98529A80E1CF
:1029F0008A95F1F76A81662321F08B819C810E9480
:102A000051140E94C313E881F9811082789490E0F8
:102A100080E0D0CF9093F1018093F0010895E09190
:102A2000F001F091F101309721F00190F081E02D5B
:102A3000099480E00895E091F001F091F101309760
:102A400021F00280F381E02D099408952091EE0198
:102A50003091EF012817390771F09093EF018093BF
:102A6000EE01E091F001F091F101309721F0068044
:102A7000F781E02D099408952091EC013091ED014A
:102A80002817390771F09093ED018093EC01E091E4
:102A9000F001F091F101309721F00084F185E02DF3
:102AA0000994089585B7806885BF85B7806885BF1C
:102AB0000895089508950C94591508950C945D1582
:102AC0000E9452150E945A150C945B150C94710AC1
:102AD000089508950E9458200E9458090E94180BDA
:102AE00080E00E94040E0E94D3200C945E15AF92E9
:102AF000BF92CF92DF92EF92FF920F931F93CF93EB
:102B0000DF93CDB7DEB72A970FB6F894DEBF0FBEBE
:102B1000CDBF0E9468150E9469150E94C209B82E97
:102B20000E946615882309F463C083EFC82E81E0F4
:102B3000D82E10E000E0A02E802F0E943509E82E4C
:102B4000F601F1906F01F81609F44CC0809167020C
:102B500081FD0E943B099F2D9E2580E0FF24F39478
:102B6000292F2F21D1F18E83AF82EF2081E009F44C
:102B700080E088870E9461208160782F9A8789870A
:102B80004E815F8168858A850E941A16F801ED5092
:102B9000FE4F8081F826F0820E949C10B1100E94A6
:102BA000650F0E940F159091F201891791F10E9413
:102BB0000F158093F2012A960FB6F894DEBF0FBE70
:102BC000CDBFDF91CF911F910F91FF90EF90DF90DC
:102BD000CF90BF90AF900C947A078F5FFF0C863038
:102BE00009F0BECF0F5F1F4F0830110509F0A3CFCA
:102BF0008FEF89838A831B820E9461208160782FF6
:102C00009D838C8349815A816B818D810E941A1624
:102C1000C3CF2A960FB6F894DEBF0FBECDBFDF91AB
:102C2000CF911F910F91FF90EF90DF90CF90BF90C9
:102C3000AF900895CF93DF93CDB7DEB72B970FB644
:102C4000F894DEBF0FBECDBF4F83588769877A8760
:102C50008B871E821D8285E0FE013796DE0111966C
:102C600001900D928A95E1F749815A816B817C81AF
:102C70008D819E812B960FB6F894DEBF0FBECDBF1F
:102C8000DF91CF910C94561BFC01808191810C94B3
:102C9000971DCF93C82F882329F18CEF8C0F813A91
:102CA000A0F46C2F80911001909111010E949C1F43
:102CB000882329F08C2F0E94CC1D0E94291E8C2F66
:102CC0000E94C51DCF910C94291E80E28C0F883084
:102CD00048F4C77081E001C0880FCA95EAF70E94E6
:102CE000ED1DF0CFCF910895882329F19CEF980F27
:102CF000913A20F40E94CC1D0C94291E90E2980F6A
:102D0000983050F4877091E001C0990F8A95EAF7E6
:102D1000892F0E94F31DF0CF9BE5980F933020F48C
:102D200090E080E00C942615885A873120F490E0DA
:102D300080E00C943C150895CF93C82F0E9449164B
:102D4000C93349F42FEF87EE93E021508040904043
:102D5000E1F700C000008C2FCF910C9474168823EB
:102D600021F00E94ED1D0C94291E0895882321F066
:102D70000E94F31D0C94291E0895BF92CF92DF92FA
:102D8000EF92FF920F931F93CF93DF936C01D62F97
:102D9000C72FFC01158112951F70028101110E943D
:102DA0000A1E0E94E31DE82E882391F00023E9F01B
:102DB0008C2F807F803421F080E28D0F8830A8F046
:102DC00082E00E94741E0E94E31D91E0E82EE92635
:102DD000BC2EB2949FE0B922FBE0FB15A8F1EB2DCD
:102DE000F0E0E959F44D0C941728E12CF1CF1C2F99
:102DF0001F70C07F11F01295107F0023A9F01123DE
:102E000059F080E28D0F883010F0D11109C0812F68
:102E10000E94ED1D0E94291E8D2F0E94491614C08C
:102E2000812F0E94FD1DF6CF8D2F0E947416112355
:102E300059F080E28D0F883010F0D1112CC0812F15
:102E40000E94F31D0E94291E2B2D2850330B243085
:102E5000310520F40E940F150E947A07EE2009F434
:102E600067C10E94DF1D80FD63C1F60112820E94CE
:102E7000D91D0E94621CC6010E94B9180E94D91D6A
:102E8000DF91CF911F910F91FF90EF90DF90CF9046
:102E9000BF900C94831C812F0E94031ED3CF2C2F34
:102EA0002F70F22EC07FC03219F0F29480EFF8221A
:102EB000DD2369F0D13049F1002391F1112351F163
:102EC000F601858180FFA8CF8F70858323C0002302
:102ED00081F0111106C00E94101E8F290E94AF16AA
:102EE000B3CF1130C1F70E94101E8F290E94161E09
:102EF000ABCF111106C00E941F1E8F2D0E94B61667
:102F0000A3CF113009F4A0CFF6CF002329F016305B
:102F100008F09ACF8F2DE2CF153008F095CFEDCF86
:102F2000112359F3D93349F4FFEF27EE33E0F15081
:102F300020403040E1F700C000008D2F0E94741641
:102F400083CF8C2F837009F041C001117DCF4D2FAD
:102F5000429546954770440F440F0D2F0F7010E0B7
:102F600030E020E0042E04C0000F111F221F331F89
:102F70000A94D2F760E070E0CB01D4FF0FC06FE09D
:102F800070E080E090E004C0660F771F881F991FF3
:102F90004A95D2F76095709580959095C695C6959F
:102FA000C370602B712B822B932BC23049F058F4E5
:102FB000C13019F00E94141C47CF0E94021C44CF5C
:102FC0000E94261C41CF0E94001C3ECF8695002304
:102FD00011F08C2F8170882309F436CF4D2F429544
:102FE00046954770440F440F0D2F0F7010E030E0EE
:102FF00020E0042E04C0000F111F221F331F0A946B
:10300000D2F760E070E0CB01D4FF0FC06FE070E05A
:1030100080E090E004C0660F771F881F991F4A95D3
:10302000D2F76095709580959095C695C695C370BA
:10303000602B712B822B932BC23049F058F4C13096
:1030400019F00E94D91C00CF0E94C71CFDCE0E941F
:10305000EB1CFACE0E943C1CF7CECF70002329F067
:103060008C2F0E94621C8D2F39CF8D2F0E94B61697
:103070008C2F0E94831CE8CED23F89F160F4D03FB0
:10308000C9F0D13F29F1002309F442C01111C4CE87
:103090008C2F8F7121C0D33F39F1D43FA1F700238A
:1030A00069F1CF718C2F0E94621C63E08C2F0E940B
:1030B0005F1ECACE002341F0153008F0C5CE8C2F1C
:1030C0008F710E94A61CC0CE163008F0BDCEF7CF7F
:1030D0008C2F8F71002369F20E94621CB5CE8C2F59
:1030E0008F710023C9F3C5CF002329F08C2F8F7176
:1030F0000E944D1CA9CE0E94481CA6CE81E00E94D1
:10310000741E123008F4A0CE82E00E94741E9CCE81
:10311000112359F0D93309F010CF8FEF97EEE3E088
:1031200081509040E040E1F706CF8C2F8F71A1CF06
:10313000DF91CF911F910F91FF90EF90DF90CF9093
:10314000BF9008950F931F93CF93DF93EC01688195
:1031500079818A810E94A11D8C010E94FD1C0E9420
:10316000FF1BB801CE01DF91CF911F910F910C94FD
:10317000BD16CF93DF93EC018B819C81892B29F0C5
:103180008881998189238F3F59F4DF91CF910895E8
:10319000CE010E94A218CE01DF91CF910C94ED05D3
:1031A000CE010E9431078111F3CF0E94E31D8823D5
:1031B00061F38A81882349F382E0DF91CF910C94F7
:1031C000741E0E940A1E0E940D1E0C94291E0E944D
:1031D000D31D0C94E1180E94FA1D0C94E718E92FF6
:1031E000E295EF70E250EE3070F4F0E0ED58F44DFF
:1031F0000C941728803F19F020F4883E20F481E0D9
:103200000895843FE1F380E00895883EC0F3813F54
:10321000D1F7F5CF93FB882780F908950E94971D79
:103220000C94EF18CF93DF9300D000D00F92CDB75E
:10323000DEB70F900F900F900F900F90DF91CF910E
:103240000895CF93DF9300D000D000D0CDB7DEB784
:1032500026960FB6F894DEBF0FBECDBFDF91CF919B
:1032600008951F93CF93DF93C091FC0116E08091E6
:10327000FD018C1304C0DF91CF911F910895D0E020
:103280001C9FF0011D9FF00D1124E250FE4F408164
:10329000518162817381848195810E9421192196D7
:1032A000C770E5CF40912E0250912F0260913002FD
:1032B0007091310280913202909133020C94211965
:1032C000CF93DF9380913302807FA9F48091300205
:1032D000882389F08091FC01A091FD0140912E028C
:1032E00050912F026091310270913202B42FB523B8
:1032F000C6E0A81303C0DF91CF91089590E0611557
:10330000710511F0BF3F19F401968770F2CFC89F85
:103310009001C99F300D1124F901E250FE4FD18177
:10332000D513F2CFD081D413EFCFD281D111ECCF0E
:103330000380F481E02DE617F70731F7809133021F
:103340008F70806180933302F901ED5FFD4F8081C2
:103350008F70806180838EE292E00E94B918DF91C5
:10336000CF910C943119AF92BF92CF92DF92EF922E
:10337000FF920F931F93CF93DF93CDB7DEB7619783
:103380000FB6F894DEBF0FBECDBF8C0185E0F8010B
:10339000DE011D9601900D928A95E1F7F8014081BA
:1033A0005181E2808EE2C82E82E0D82E60913102F7
:1033B000709132026115710509F459C190912E0284
:1033C00020912F02892F82238F3F09F450C1A380BF
:1033D000B480F0903002FF2009F4F8C080913302ED
:1033E000382F307F6A157B0509F0AFC0311177C0E7
:1033F000FE2C251323C0941321C0E1101FC08F7031
:103400008061809333020E945219C6010E94B9184C
:1034100080913302F80185838F2D61960FB6F89461
:10342000DEBF0FBECDBFDF91CF911F910F91FF90F7
:10343000EF90DF90CF90BF90AF900895842F8523B9
:103440008F3F09F030C180E0F82FF170DF2E80FF50
:103450003CC08091FC012091FD0136E0821315C033
:103460004D875E878D859E850E94971D292F229509
:103470002F702230F0F0243018F59F70F1F0F80131
:103480009581907FD1F4D12C1EC090E0389FF0013F
:10349000399FF00D1124E250FE4F6181651306C083
:1034A0006081641303C06281E6120FC001968770C9
:1034B000D5CF9F7011F0882331F3805E883018F3E8
:1034C000C8010E94B918FD2CA7CFEE2009F4A4CFA3
:1034D00080913302816080933302F12C9DCF2513BC
:1034E00005C0941303C0EE2009F48BC04D875E879E
:1034F0008D859E850E940E19882319F1EE2009F111
:1035000080913302803270F020912E0230912F0290
:1035100038872F831986BB86AA868C87CE010796AB
:103520000E94B91886E0F801AEE2B2E001900D9277
:103530008A95E1F70E9460190E945219FF24F394C2
:103540006BCFC8010E94B918F9CF311113C07A2D81
:10355000B98AA88A6E2D89890E9412198EE292E09A
:103560000E94B91886E0F60111928A95E9F70E9447
:103570005219B3CF25130EC094130CC0E1100AC02A
:103580008583C8010E94B91886E0F60111928A95D8
:10359000E9F742CF4D875E878D859E850E940E1983
:1035A000882379F2EE2069F280913302803208F4A8
:1035B000B9CF20912E0230912F023A8329831B82AA
:1035C000BD82AC828E83CE010196AACF6A157B059F
:1035D00009F040C0FE2CEE2009F4B3CF251329C01A
:1035E000941327C08091330280FD1AC0982F907FDA
:1035F000B9F08583903F31F0982F907F905F8F7066
:10360000892B8583C8010E94B91886E0F801AEE2D3
:10361000B2E001900D928A95E1F70E945219FCCE1A
:1036200086E0F801AEE2B2E001900D928A95E1F7F2
:10363000F3CE4D875E878D859E850E940E19811180
:1036400071CF80913302816080933302C8010E9460
:10365000B918E2CE7A2DB98AA88A6E2D89890E947E
:10366000121986E0F60111928A95E9F7D6CFEE207D
:1036700009F467CF4D875E878D859E850E940E1960
:10368000F82E882309F45DCF86E0F801AEE2B2E0BF
:1036900001900D928A95E1F78EE292E00E94441625
:1036A0000E946019BACF81E08E25CECE1F93CF93B2
:1036B000DF93CDB7DEB72C970FB6F894DEBF0FBE01
:1036C000CDBF4F83588769877A878B879C87CE01C8
:1036D00007960E94B319882369F08A859B85892BF8
:1036E00039F04F815885842F85238F3F09F071C0B1
:1036F00016E05FC086E0FE013796DE01119601906C
:103700000D928A95E1F78A859B85892B89F38F81B4
:10371000988589238F3F61F32091FD0130E0C90135
:103720000196877099274091FC014817190671F49A
:103730000E94EB181092FD011092FC0186E0EEE26F
:10374000F2E0DF011D928A95E9F7D2CF96E0929FD1
:10375000D001939FB00D1124A250BE4FFE013196AF
:1037600001900D929A95E1F78093FD010E94311925
:10377000BFCF819FC001112482509E4F0E94B31978
:103780008823E9F0E091FC011E9FF0011124E25032
:10379000FE4F4081518162817381848195810E94B5
:1037A00021198091FC0190E0019687709927809300
:1037B000FC018091FC019091FD018913DACF2C96D8
:1037C0000FB6F894DEBF0FBECDBFDF91CF911F9132
:1037D000089569857A858B859C850E94211988CFFB
:1037E00008950C94F01B0E94F11B60935602709395
:1037F000570280935802909359020C94E11808954F
:103800000C94F31B0F931F930091560210915702D3
:103810002091580230915902602B712B822B932BEF
:103820001F910F910C94F31B0F931F93009156025D
:103830001091570220915802309159026023712350
:10384000822393231F910F910C94F31B0F931F93CB
:10385000009156021091570220915802309159025E
:1038600060277127822793271F910F910C94F31BD8
:103870000C94F01B0C94381C0E943A1C609352026A
:103880007093530280935402909355020C94E11864
:1038900060E070E0CB010C943C1C0F931F9341E05F
:1038A00050E060E070E08A019B0104C0000F111F2E
:1038B000221F331F8A95D2F7C901B8011F910F91BA
:1038C0000C943C1C0F931F9341E050E060E070E0CB
:1038D00004C0440F551F661F771F8A95D2F7809149
:1038E000520290915302A0915402B09155028A0164
:1038F0009B01082B192B2A2B3B2BC901B8011F91C7
:103900000F910C943C1C0F931F9341E050E060E03A
:1039100070E004C0440F551F661F771F8A95D2F7C9
:10392000CB01BA01609570958095909500915202F7
:10393000109153022091540230915502602371235B
:10394000822393231F910F910C943C1C0F931F9380
:1039500041E050E060E070E004C0440F551F661F76
:10396000771F8A95D2F78091520290915302A091CD
:103970005402B09155028A019B01082719272A2772
:103980003B27C901B8011F910F910C943C1C0F9368
:103990001F930091520210915302209154023091D2
:1039A0005502602B712B822B932B1F910F910C943E
:1039B0003C1C0F931F9300915202109153022091CF
:1039C00054023091550260237123822393231F9167
:1039D0000F910C943C1C0F931F9300915202109175
:1039E000530220915402309155026027712782279B
:1039F00093271F910F910C943C1C0895E92FEE0F13
:103A0000E90FEE0F8E0F982F977041E001C0440F21
:103A10009A95EAF786958695869595E0899FF001B7
:103A20001124EC5CFD4F30E020E070E05191DF01AB
:103A30001197CB01022E02C0969587950A94E2F762
:103A4000817081958527842385278C932F5F3F4F35
:103A50002530310559F70895E92FEE0FE90FEE0FE4
:103A60008E0F982F977086958695869525E0829F74
:103A7000F0011124EC5CFD4F50E040E080E021912A
:103A800030E0092E02C0369527950A94E2F721709E
:103A90003327042E01C0220F0A94EAF7822B4F5FCE
:103AA0005F4F4530510559F70895BF92CF92DF928D
:103AB000EF92FF920F931F93CF93DF938C01C090EF
:103AC0005202D0905302E0905402F090550280913F
:103AD000560290915702A0915802B0915902C82AFB
:103AE000D92AEA2AFB2ACFE1D0E0BC2ED701C601B1
:103AF0000C2E04C0B695A795979587950A94D2F792
:103B000080FD0EC0219788F7B12C8B2DDF91CF91CE
:103B10001F910F91FF90EF90DF90CF90BF9008958D
:103B2000B8018C2F0E948207019761F3EECFCF93EB
:103B3000DF93EC010E94551DBE01DF91CF910C94E3
:103B400082071F93CF93DF93EB019091FB019923A1
:103B500031F0CB01DF91CF911F910C94971D8823F9
:103B600079F0CB010E94551D182F682FCE010E94BD
:103B7000FE1CBE01812FDF91CF911F910C94820713
:103B8000CB010E942C1D182FF4CF682F80911001BB
:103B9000909111010C94D21F682F80911001909187
:103BA00011010C94D41F80911001909111010C947B
:103BB000D61F80915A0285958595859508958091A7
:103BC0005A028770089590915A02977081E009F423
:103BD00080E0089580916602089590916602892B95
:103BE0008093660208958095909166029823909341
:103BF0006602089510926602089590916502892BDD
:103C00008093650208958095909165029823909322
:103C10006502089510926502089510926402089555
:103C200080915B02089508950C94131E90915B029D
:103C3000981721F080935B020C94141E08958091D4
:103C40005B02882329F010925B0280E00C94141E22
:103C50000895E0911001F091110180916602808336
:103C6000E0911001F0911101808190916502892B02
:103C70008083E0911001F0911101808190916402A4
:103C8000892B808390915B02992381F0E091100150
:103C9000F09111018081892B808380911001909196
:103CA00011010E948A1F81110E941F1E8091100124
:103CB000909111010C941B1508950C945C1E98E0D2
:103CC000899F90011124622B60935A020E94621C0A
:103CD00080915A028595859585950C945D1E10926C
:103CE0005A0280E00C945D1E90915A0280958923BF
:103CF00080935A02282F277071F4282F082E000C69
:103D0000330B9217130639F08595859585950E949A
:103D1000831C0C946F1E0895CF92DF92EF92FF9256
:103D20006C01EE24FF2420E0C114D104E104F1046D
:103D300019F0C701B60120E1C72ED82EE92EFF24C5
:103D4000C114D104E104F10419F0285FC701B601E0
:103D50006B017C0154E0F694E794D794C7945A958C
:103D6000D1F7C114D104E104F10419F02C5FC701AB
:103D7000B6016B017C0142E0F694E794D794C794B6
:103D80004A95D1F7C114D104E104F10419F02E5F72
:103D9000C701B6019695879577956795672B682B30
:103DA000692B09F02F5F822FFF90EF90DF90CF906B
:103DB00008956FEF7FEF90E080E00C94052B90E08A
:103DC00080E00E94E12A21E08C3E9E4F09F020E035
:103DD000822F089582E090E00C94D92A83E090E04D
:103DE0000C94D92ACF9384E090E00E94D92AC82F5E
:103DF00081E290E00E94D92A982F8C2FCF910895CC
:103E0000CF93C92F682F84E090E00E94E72A6C2F9F
:103E100081E290E0CF910C94E72AAB01BC018FE0E6
:103E200090E00C94F92AAB01BC0183E190E00C9482
:103E3000F92A60E070E0CB010C94131F60E070E0A1
:103E4000CB010E940D1F0C94191F6CEE7EEF90E0C9
:103E500080E00E94052B60E082E090E00E94E72A6B
:103E600060E083E090E00E94E72A109256021092F0
:103E70005702109258021092590260E084E090E0DC
:103E80000E94E72A60E081E290E00E94E72A60E079
:103E900085E090E00E94E72A60E086E090E00E94E2
:103EA000E72A6FEF87E090E00E94E72A40E050E0C9
:103EB000BA0188E090E00E94F92A60E08DE090E08D
:103EC0000E94E72A40E050E0BA0188E190E00E94B9
:103ED000F92A60E087E190E00E94E72A40E050E0A4
:103EE000BA018CE190E00E94F92A60E080E290E063
:103EF0000E94E72A40E050E0BA0188E190E00E9489
:103F0000F92A0C941E1F0C94251F682F8EE090E058
:103F10000C94E72A9C012E5F3F4FAC01485F5F4F36
:103F200080E02417350709F40895F90191919F0164
:103F30009923B9F38F5FF5CF662349F0FC013296E0
:103F400008962191261729F0E817F907D1F780E0A4
:103F5000089581E008959C01FC0132969FEF80E076
:103F60004191461751F09F3F19F4411101C0982F1C
:103F70008F5F8630A9F79F3F09F40895290F311DFF
:103F800097FD3A95F90162830895FC0132960896EF
:103F90002191261303C0DF0111971C92E817F9073E
:103FA000B9F708950C94AB1F0C94C51F029626E038
:103FB000FC0111922A95E9F70895089508950C944B
:103FC000DE1F0E94DF1F80919504843049F110921A
:103FD000680288E190E020E40FB6F894A8958093F9
:103FE00060000FBE2093600080E00E947A070E946C
:103FF000DF1F83B7817F846083BF83B7816083BF06
:104000007894889583B78E7F83BF0FB6F894A89570
:1040100080916000886180936000109260000FBE04
:1040200008950895CF930E94DD1F0E94C2090E9447
:104030001120C0E08C2F0E943509811105C0CF5F8F
:10404000C830C1F7CF91089581E0FCCF08950C945A
:1040500026200E94EB180E940F150E947A070C94EC
:1040600027201F921FB61F9211248F939F93AF9307
:10407000BF9380916802811113C080918B0490914D
:104080008C04A0918D04B0918E044196A11DB11DA8
:1040900080938B0490938C04A0938D04B0938E0432
:1040A000BF91AF919F918F911F901FBE1F90189548
:1040B00082E084BD93E095BD9AEF97BD80936E003A
:1040C00008952FB7F89480918B0490918C04A0915F
:1040D0008D04B0918E042FBF08952FB7F89460918E
:1040E0008B0470918C0480918D0490918E042FBF6D
:1040F00008959C014FB7F89480918B0490918C04A3
:10410000A0918D04B0918E044FBF821B930B089534
:1041100078941F921FB61F9211248F939F93AF9391
:10412000BF9380918B0490918C04A0918D04B091E9
:104130008E040196A11DB11D80938B0490938C0475
:10414000A0938D04B0938E04BF91AF919F918F91F6
:104150001F901FBE1F90189587E797E7909301085F
:104160008093000888E19AE00FB6F894A8958093B0
:1041700060000FBE90936000FFCF0C94050B0E946F
:10418000C2098FE39CE90197F1F700C000000E948B
:10419000C20980E00E94350980FF04C00E94BD2052
:1041A0000C94AC2008950E94DF1E811102C00E9471
:1041B000831F0E94EA1E809367020E94F21E909362
:1041C000900480938F040E94EE1E682F70E090E0B0
:1041D00080E00E94001C6091520270915302809115
:1041E0005402909155020C943A1C809171020895EA
:1041F00008950895CF93DF93EC0181E08093E90067
:104200008FEF9091E800815095FD06C095ED9A954D
:10421000F1F700008111F5CF8091E80085FF14C00F
:1042200050E040E068E070E0CE010E9417238091EA
:10423000E8008E778093E80088E0FE01A9E6B2E00E
:1042400001900D928A95E1F7DF91CF91089508953D
:10425000CF93FC01603221F580919504843001F503
:10426000C091E900CF702091EC00922F917020FD59
:1042700090E8C92B82E08093E9008091E80080FFFC
:104280000CC050E040E060E270E0CF010E941723D4
:104290008091E8008E778093E800CF70C093E900AA
:1042A000CF91089580919404811109C00E94F62451
:1042B0000E9453258091E20084608093E20008957B
:1042C000109294040895089508950C94292042E0D2
:1042D00061EC81E00E94722442E261EC82E00E9483
:1042E000722442E260EC83E00C9472248091970483
:1042F000833009F45FC030F48130C1F1823009F4B9
:104300009BC008958A3009F487C08B3009F46DC0D2
:10431000893009F04EC080919604813209F049C07D
:1043200080919A0490919B04892B09F042C080915E
:10433000E800877F8093E8008091E80082FF35C025
:104340009091F3008091F200029729F48091F1009E
:104350008B7F813021F48091F100809371028091F4
:10436000E8008B778093E8000C94A6248091960453
:10437000813AF9F48091E800877F8093E80080918A
:104380009A0490919B04892B61F468E089E692E09D
:1043900070E00E94B5238091E8008B778093E8005D
:1043A000089560E090E080E0F3CF80919504811162
:1043B000C3CF089580919604813AD9F780919A04E9
:1043C00090919B04892BA9F78091E800877F8093C7
:1043D000E8008091E80080FFFCCF80911C01809371
:1043E000F1008091E8008E77BDCF809196048132F4
:1043F00001F780919A0490919B04892BD1F68091CA
:10440000E800877F8093E8000E94A62480919804AA
:1044100080931C010C94EB1880919604813249F62C
:104420008091E800877F8093E8000E94A624809115
:10443000990480937202089580919604813A09F05C
:10444000B8CF8091E800877F8093E8008091E800F2
:1044500080FFFCCF80917202C2CFCDB7DEB7A097AC
:104460000FB6F894DEBF0FBECDBF84B7877F84BF81
:104470000FB6F894A89580916000886180936000E1
:10448000109260000FBE80E890E00FB6F894809321
:104490006100909361000FBE0E9460150E94F62497
:1044A0000E9453258091E20084608093E20078941A
:1044B0000E94DC270E946A1582E191E00E940A15A1
:1044C00013E080919504853059F00E947715809112
:1044D0009504843091F00E9468150E946915F1CF0F
:1044E0000E94E11F80919304882359F30E941220B7
:1044F000882339F30E940123E4CF1093E9008091CF
:10450000E80082FFE8CF8091E80090E085FF09C0D5
:1045100050E040E060E270E0CE0101960E94662328
:1045200091E08091E8008B778093E800992399F2DD
:1045300060E2CE0101960E94670BCDCF0C94A022C1
:10454000E92FFF27E330F105E9F060F4E130F105F0
:1045500009F448C0329709F44AC0F0E0E0E090E086
:1045600080E025C0E132F10571F1E232F105A9F7F1
:104570006115710509F440C08EE299E06130710562
:10458000B1F0EBCF992781309105B1F0009749F058
:10459000029719F7E8EBF8E0E491F0E088EB98E097
:1045A00006C0E6EDF8E0E491F0E086ED98E0DA018F
:1045B0008D939C93CF010895E8ECF8E0E491F0E04E
:1045C00088EC98E0F4CFE9E0F0E08CEE98E061153B
:1045D000710569F3E9E0F0E085E099E0613071058B
:1045E00031F3BBCFE2E1F0E08CE199E0E0CFE2E42F
:1045F000F0E08AED98E0DBCFE0E4F0E080E599E0E0
:10460000D6CF80E189BD82E189BD09B400FEFDCF2E
:104610008091D8008F7D8093D8008091E0008260E7
:104620008093E0008091E00081FDFCCF0895AF927F
:10463000BF92CF92DF92FF920F931F93CF93DF939E
:104640006C01EB018A010E94C524F82E811123C060
:104650000115110539F0F80180819181C81BD90B32
:10466000C80ED91EB12CA12C2097A9F08091E8008A
:1046700085FD22C08091E8008E778093E8000115C7
:104680001105A1F0F80180819181A80EB91EB182B7
:10469000A08285E0F82E8F2DDF91CF911F910F9191
:1046A000FF90DF90CF90BF90AF9008950E94C524F7
:1046B0008823D1F2F82EEFCFF60181916F0180931C
:1046C000F1002197FFEFAF1ABF0ACECFAF92BF9292
:1046D000CF92DF92FF920F931F93CF93DF936C01E2
:1046E000EB018A010E94C524F82E811123C0011517
:1046F000110539F0F80180819181C81BD90BC80ED2
:10470000D91EB12CA12C2097A9F08091E80085FD3D
:1047100022C08091E8008B778093E8000115110595
:10472000A1F0F80180819181A80EB91EB182A0820A
:1047300085E0F82E8F2DDF91CF911F910F91FF9083
:10474000DF90CF90BF90AF9008950E94C52488233A
:10475000D1F2F82EEFCF8091F100F60181936F0135
:104760002197FFEFAF1ABF0ACECFFC0180919C04C6
:1047700090919D0486179707A0F06115710529F4A3
:104780009091E8009E779093E80090E061157105A4
:1047900051F4911108C08091E80082FF34C080E09C
:1047A0000895BC01F2CF809195048823C1F1853032
:1047B000C1F18091E80083FD30C08091E80082FD66
:1047C000EACF8091E80080FFE1CF8091F300209153
:1047D000F200382F6115710519F02830310558F0B5
:1047E00091E02830310509F090E02091E8002E7723
:1047F0002093E800CBCF81918093F1006150710943
:104800002F5F3F4FE7CF80919504882341F085309B
:1048100041F08091E80083FFBECF81E0089582E0FF
:10482000089583E00895FC0180919C0490919D047B
:1048300086179707A0F06115710529F48091E800AB
:104840008E778093E80090E06115710551F4911125
:1048500008C08091E80082FF35C080E00895BC0167
:10486000F2CF809195048823C9F18530C9F18091F8
:10487000E80083FD31C08091E80082FDEACF80919D
:10488000E80080FFE1CF8091F3002091F200382F03
:104890006115710519F02830310558F091E0283084
:1048A000310509F090E08091E8008E778093E80070
:1048B000CBCF84918093F1003196615071092F5FC5
:1048C0003F4FE6CF80919504882341F0853041F039
:1048D0008091E80083FFBDCF81E0089582E00895D4
:1048E00083E00895982F973028F08F708093E90027
:1048F00081E008959093E900242F762F50E09817D7
:1049000031F07091EC002091ED005091F00021FD0C
:1049100002C09F5FE8CF3091EB003E7F3093EB0009
:104920003091ED003D7F3093ED003091EB00316030
:104930003093EB007093EC002093ED005093F00067
:104940002091EE0027FDE5CF80E008958091960448
:1049500087FF13C08091E80082FF06C08091E800C5
:104960008B778093E80004C0809195048111F2CF89
:104970000895809195048823D9F38091E80080FF01
:10498000F8CF8091E8008E77ECCF2091E400309151
:10499000E50095E6A9012091EC00822F817020FFAF
:1049A00006C08091E80080FF06C080E00895209155
:1049B000E80022FD1AC080919504882389F0853093
:1049C00089F08091EB0085FD0FC02091E4003091CB
:1049D000E50042175307F9F29150E1F684E008959B
:1049E00082E0089583E0089581E008950E9464259F
:1049F0000E946C25E0EEF0E0808181608083E8ED2C
:104A0000F0E080818F77808319BCA7EDB0E08C91B6
:104A10008E7F8C9380818F7E808310929404089582
:104A20000F931F93CF93DF930E9464250E946C2500
:104A3000C8EDD0E088818F778883888180688883FB
:104A400088818F7D888319BC1092950410929104FF
:104A5000109293041092920400EE10E0F80180810D
:104A60008B7F808388818160888342E060E080E082
:104A70000E947224E1EEF0E080818E7F8083E2EE7E
:104A8000F0E0808181608083808188608083F8018C
:104A900080818E7F8083888180618883DF91CF9140
:104AA0001F910F910895E8EDF0E080818F7E808363
:104AB000E7EDF0E080818160808384E082BF81E067
:104AC000809394040C941025E8EDF0E080818E7FB3
:104AD00080831092E20008951092DA001092E100B3
:104AE00008951F920F920FB60F9211242F933F93A8
:104AF0004F935F936F937F938F939F93AF93BF93E6
:104B0000EF93FF938091E10082FF0BC08091E20060
:104B100082FF07C08091E1008B7F8093E1000E94BB
:104B2000DB278091DA0080FF19C08091D80080FFD8
:104B300015C08091DA008E7F8093DA008091D900D1
:104B400080FF96C080E189BD82E189BD09B400FE85
:104B5000FDCF81E0809395040E9452218091E10075
:104B600080FF19C08091E20080FF15C08091E200B3
:104B70008E7F8093E2008091E20080618093E2006A
:104B80008091D80080628093D80019BC85E0809322
:104B900095040E9464218091E10084FF2BC08091E4
:104BA000E20084FF27C080E189BD82E189BD89B52B
:104BB000982F917080FFFBCF8091D8008F7D8093DC
:104BC000D8008091E1008F7E8093E1008091E20027
:104BD0008F7E8093E2008091E20081608093E2000A
:104BE00080919104882309F449C084E0809395045E
:104BF0000E9465218091E10083FF29C08091E2003D
:104C000083FF25C08091E100877F8093E10082E0EF
:104C100080939504109291048091E1008E7F80939F
:104C2000E1008091E2008E7F8093E2008091E200BB
:104C300080618093E20042E060E080E00E947224A4
:104C40008091F00088608093F0000E946321FF91C2
:104C5000EF91BF91AF919F918F917F916F915F91F4
:104C60004F913F912F910F900FBE0F901F9018956D
:104C700019BC109295040E94602170CF8091E300CE
:104C800087FD93E090939504B3CF1F920F920FB6D8
:104C90000F9211242F933F934F935F936F937F93C2
:104CA0008F939F93AF93BF93CF93DF93EF93FF9334
:104CB000D091E900DF708091EC00C82FC17080FDB9
:104CC000C0E81092E9008091F000877F8093F000A7
:104CD00078940E9489261092E9008091F000886003
:104CE0008093F000CD2BCF70C093E900FF91EF913E
:104CF000DF91CF91BF91AF919F918F917F916F91F4
:104D00005F914F913F912F910F900FBE0F901F9089
:104D100018951F93CF93DF93CDB7DEB7AA970FB641
:104D2000F894DEBF0FBECDBF86E994E02091F1007C
:104D3000FC012193CF01F4E08E399F07B9F70E945F
:104D400076218091E80083FF1EC1809196049091A6
:104D500097049A3008F017C1E92FF0E0EF57F44DAF
:104D60000C941728803899F0823809F00CC1809192
:104D70009A048F70873008F006C18093E900809113
:104D8000EB0085FB882780F91092E90006C080912E
:104D9000920490919304911182609091E800977F22
:104DA0009093E8008093F1001092F1008091E80068
:104DB0008E77E5C0882309F4D3C0823009F0E3C0C0
:104DC000809198048111D6C080919A048F702FEF42
:104DD000280F263008F0D7C08093E9002091EB001F
:104DE00020FFC8C0933031F48091EB008062809343
:104DF000EB00C0C09091EB0090619093EB0021E03C
:104E000030E001C0220F8A95EAF72093EA00109261
:104E1000EA008091EB008860EACF8111B4C0109164
:104E200098041F778091E3008078812B8093E300C2
:104E30008091E800877F8093E8000E94A6248091FB
:104E4000E80080FFFCCF8091E30080688093E3005E
:104E500082E0111183E08093950495C080588230E0
:104E600008F091C080919804909199048C3D23E0C2
:104E70009207A1F583E08A838AE289834FB7F89489
:104E8000DE01139620E03EE051E2E32FF0E0509384
:104E90005700E49120FF03C0E295EF703F5FEF7091
:104EA0008E2F90E0EA30C0F0C7968D939D932F5FD0
:104EB000243159F74FBF8091E800877F8093E80045
:104EC0006AE270E0CE0101960E94B5238091E8006D
:104ED0008B778093E80057C0C096E7CF60919A0423
:104EE00070919B04AE014F5F5F4F0E949E22BC01F8
:104EF000892B09F448C09091E800977F9093E800CF
:104F000089819A810E941324E1CF8038E1F5809154
:104F1000E800877F8093E800809191048093F100FE
:104F200045CF811130C090919804923060F5809106
:104F3000E800877F8093E800909391040E94A62464
:104F400080919104882311F084E005C08091E300F2
:104F500087FDFACF81E0809395040E94672113C0FA
:104F600080919804813079F481E0933009F080E0F9
:104F7000809393041092E9008091E800877F8093EA
:104F8000E8000E94A6248091E80083FF0AC0809177
:104F9000E800877F8093E8008091EB008062809337
:104FA000EB00AA960FB6F894DEBF0FBECDBFDF911F
:104FB000CF911F9108950895CF93809195048823F0
:104FC000A1F0C091E900CF709091EC00892F817021
:104FD00090FD80E8C82B1092E9008091E80083FDE5
:104FE0000E948926CF70C093E900CF910895991B44
:104FF00079E004C0991F961708F0961B881F7A95D0
:10500000C9F780950895AA1BBB1B51E107C0AA1FD1
:10501000BB1FA617B70710F0A61BB70B881F991F59
:105020005A95A9F780959095BC01CD010895EE0F92
:10503000FF1F0590F491E02D0994692796276927B1
:105040007827872778270895FB01DC0102C00590A7
:105050000D9241505040D8F70895FB01DC0104C087
:105060008D910190801921F441505040C8F7881B60
:10507000990B0895AEE0B0E0E0E4F8E20C94292B3F
:105080000D891E898F89988D26E02C831A830983C8
:1050900097FF02C080E090E801979E838D83AE0168
:1050A000455E5F4F698D7A8DCE0101960E946A2818
:1050B0004D815E8157FD0AC02F8138854217530705
:1050C0000CF49A01020F131FF80110822E96E4E0EF
:1050D0000C94452BABE0B0E0E0E7F8E20C941B2B1E
:1050E0007C013B018A01FC0117821682838181FFCA
:1050F000B9C19AE0292ECE0101965C01F701938196
:10510000F30193FD859193FF81913F01882309F479
:1051100046C1853239F493FD859193FF81913F011A
:10512000853229F4B70190E00E944B2AE7CF912CF9
:10513000412C512CFFE1F51538F08B3209F188F440
:10514000803201F1833221F157FC3AC020ED280F63
:105150002A3040F556FE1FC0929C200D1124922E3D
:1051600006C08D3291F0803379F7689450F8F301DE
:1051700093FD859193FF81913F018111DBCF20C089
:10518000689451F8689452F8F2CF689453F8EFCFCE
:10519000689454F8ECCF429C200D1124422E689460
:1051A00055F8E5CF8E3229F456FCF9C0689456F8CC
:1051B000DECF8C3619F4689457F8D9CF8836B9F217
:1051C000982F9F7D95549330C0F08336A1F183379B
:1051D000C1F1833509F05BC0F801C190D1908F0116
:1051E000692D70E056FC02C06FEF7FEFC6010E9490
:1051F000352A4C01689457F80AC00C5F1F4F2FE303
:10520000298388248394912C6501E89457F853FCF2
:1052100004C04814190409F018F5342C81149104C1
:1052200031F5332009F46ACFB70180E290E00E94A3
:105230004B2A3A94F6CFF801808189830E5F1F4F85
:10524000E0CFF801C190D1908F01692D70E056FC3C
:1052500002C06FEF7FEFC6010E94402A4C01D5CFFC
:10526000B70180E290E00E944B2A4A94D2CFF60127
:1052700057FC859157FE81916F01B70190E00E9424
:105280004B2A31103A94F1E08F1A9108C7CF843637
:1052900019F0893609F074C0F80157FE6AC06191AF
:1052A0007191819191918F01252D2F76D22E97FFAB
:1052B00009C090958095709561957F4F8F4F9F4F56
:1052C0006894D7F82AE030E0A5010E947B2AC82E16
:1052D000CA188C2C5D2CD6FE0CC0E89450F8C9146A
:1052E00040F4D4FE05C0D2FC03C0FD2DFE7E5F2E2F
:1052F000892C54FE8FC0FE01EC0DF11D808180339E
:1053000009F081C0252D297E522E852D8870382EDA
:1053100053FC8FC050FE89C09C2C841418F44C0C94
:10532000942C981854FE8BC0B70180E390E00E9443
:105330004B2A52FE09C088E790E051FE02C088E582
:1053400090E0B7010E944B2AC91408F484C0CA94A3
:10535000D12C9FEFC91AD90ACA0CDB1CF601829125
:105360006F01B70190E00E944B2AAC14BD04B1F765
:1053700058CF61917191072E000C880B990B93CF38
:10538000D52CE894D4F82AE030E0853739F1952D12
:10539000997FD92E8F3601F148F48835A9F0F701AD
:1053A000868197812B96E2E10C94372B803749F068
:1053B0008837A9F7D4FE02C06894D2F820E130E023
:1053C0000DC06894D4F8F6CF54FE03C0E92FE66010
:1053D000DE2E20E132E002C028E030E0F801D7FE06
:1053E0000DC061917191819191918F01A5010E94F0
:1053F0007B2AC82ECA18E894D7F86BCF61917191B7
:1054000090E080E0F2CF52FC02C083947ECF839480
:1054100083947BCF852D867809F477CFF6CFB701BB
:1054200080E290E00E944B2A83948414C0F3312CD4
:1054300079CF342C3818841408F474CFF8CF852D24
:10544000867809F481CF8BE251FE80E257FC8DE231
:10545000B70190E077CFB70180E390E00E944B2A3C
:105460009A9472CF8FEF9FEF9DCFFC010590615012
:1054700070400110D8F7809590958E0F9F1F08956A
:10548000FC016150704001900110D8F78095909513
:105490008E0F9F1F08950F931F93CF93DF93182FA5
:1054A000092FEB018B8181FD09C01FEF0FEF812FC9
:1054B000902FDF91CF911F910F91089582FF14C01B
:1054C0002E813F818C819D81281739073CF4E8812A
:1054D000F981CF0101969983888310838E819F8102
:1054E00001969F838E83E3CFE885F985812F099507
:1054F000892BA1F3DACFFA01AA27283051F1203104
:1055000081F1E8946F936E7F6E5F7F4F8F4F9F4F57
:10551000AF4FB1E03ED0B4E03CD0670F781F891F99
:105520009A1FA11D680F791F8A1F911DA11D6A0F67
:10553000711D811D911DA11D20D009F468943F911A
:105540002AE0269F11243019305D3193DEF6CF0119
:105550000895462F4770405D4193B3E00FD0C9F7DF
:10556000F6CF462F4F70405D4A3318F0495D31FD4C
:105570004052419302D0A9F7EACFB4E0A69597959F
:10558000879577956795BA95C9F700976105710575
:1055900008959B01AC010A2E0694579547953795BF
:1055A0002795BA95C9F7620F731F841F951FA01D19
:1055B0000895F999FECF92BD81BDF89A992780B5DB
:1055C0000895A8E1B0E042E050E00C940D2B262FA6
:1055D000F999FECF92BD81BDF89A019700B40216E9
:1055E00039F01FBA20BD0FB6F894FA9AF99A0FBE97
:1055F00008950396272F0E94E82A0E94E72A252F64
:105600000E94E82A242F0C94E82A0196272F0E9452
:10561000E82A0C94E72ADC01CB01FC01F999FECFC2
:1056200006C0F2BDE1BDF89A319600B40D9241502A
:105630005040B8F708952F923F924F925F926F9229
:105640007F928F929F92AF92BF92CF92DF92EF9212
:10565000FF920F931F93CF93DF93CDB7DEB7CA1B93
:10566000DB0B0FB6F894DEBF0FBECDBF09942A88BE
:10567000398848885F846E847D848C849B84AA8466
:10568000B984C884DF80EE80FD800C811B81AA81F3
:10569000B981CE0FD11D0FB6F894DEBF0FBECDBFBE
:1056A000ED010895F894FFCF790B860BAD0BB90B84
:1056B000C40BCF0BD20BD20BD20B1B0C1E0CD50B79
:1056C000D90BE10BEE0BFB0BFE0B010C0E0CF716CE
:1056D000F7164F174F172417241724172417A1174D
:1056E0002D183C183C18FA18FA1803190319051953
:1056F000031903190319FA18FA180A1903190319D7
:105700000A19B226DA26C327DA26C3270D272E2741
:06571000C3278527912745
:1057160001B40100B50104B5010021007F22000398
:105726005C02F520FA20F820F9202721012564786B
:1057360025642C206B253264203A20256300202026
:1057460020206162636465666768696A6B6C6D6E6A
:105756006F707172737475767778797A3132333403
:105766003536373839305245425420202020202003
:10577600203B27202C2E2F202020F4F5F6F731335E
:10578600946697C60000000000081018181008005C
:00000001FF
